{
  "address": "0x220a85bCd2212ab0b27EFd0de8b5e03175f0adee",
  "abi": [
    {
      "inputs": [
        {
          "internalType": "address",
          "name": "_governor",
          "type": "address"
        },
        {
          "internalType": "address",
          "name": "_mechanicsRegistry",
          "type": "address"
        },
        {
          "internalType": "address",
          "name": "_stealthRelayer",
          "type": "address"
        },
        {
          "internalType": "address",
          "name": "_v2Keeper",
          "type": "address"
        },
        {
          "internalType": "uint256",
          "name": "_workCooldown",
          "type": "uint256"
        },
        {
          "internalType": "address",
          "name": "_keep3r",
          "type": "address"
        },
        {
          "internalType": "address",
          "name": "_keep3rHelper",
          "type": "address"
        },
        {
          "internalType": "address",
          "name": "_bond",
          "type": "address"
        },
        {
          "internalType": "uint256",
          "name": "_minBond",
          "type": "uint256"
        },
        {
          "internalType": "uint256",
          "name": "_earned",
          "type": "uint256"
        },
        {
          "internalType": "uint256",
          "name": "_age",
          "type": "uint256"
        },
        {
          "internalType": "bool",
          "name": "_onlyEOA",
          "type": "bool"
        }
      ],
      "stateMutability": "nonpayable",
      "type": "constructor"
    },
    {
      "inputs": [],
      "name": "KeeperNotValid",
      "type": "error"
    },
    {
      "inputs": [],
      "name": "MaxMultiplier",
      "type": "error"
    },
    {
      "inputs": [],
      "name": "NoChangeInPause",
      "type": "error"
    },
    {
      "inputs": [],
      "name": "OnlyEOA",
      "type": "error"
    },
    {
      "inputs": [],
      "name": "OnlyGovernor",
      "type": "error"
    },
    {
      "inputs": [],
      "name": "OnlyGovernorOrMechanic",
      "type": "error"
    },
    {
      "inputs": [],
      "name": "OnlyPendingGovernor",
      "type": "error"
    },
    {
      "inputs": [],
      "name": "OnlyStealthRelayer",
      "type": "error"
    },
    {
      "inputs": [],
      "name": "Paused",
      "type": "error"
    },
    {
      "inputs": [],
      "name": "StrategyAlreadyAdded",
      "type": "error"
    },
    {
      "inputs": [],
      "name": "StrategyNotAdded",
      "type": "error"
    },
    {
      "inputs": [],
      "name": "StrategyNotWorkable",
      "type": "error"
    },
    {
      "inputs": [],
      "name": "WrongLengths",
      "type": "error"
    },
    {
      "inputs": [],
      "name": "ZeroAddress",
      "type": "error"
    },
    {
      "inputs": [],
      "name": "ZeroCooldown",
      "type": "error"
    },
    {
      "anonymous": false,
      "inputs": [
        {
          "indexed": false,
          "internalType": "address",
          "name": "_strategy",
          "type": "address"
        }
      ],
      "name": "ForceWorked",
      "type": "event"
    },
    {
      "anonymous": false,
      "inputs": [
        {
          "indexed": false,
          "internalType": "uint256",
          "name": "_gasBonus",
          "type": "uint256"
        }
      ],
      "name": "GasBonusSet",
      "type": "event"
    },
    {
      "anonymous": false,
      "inputs": [
        {
          "indexed": false,
          "internalType": "uint256",
          "name": "_initialGas",
          "type": "uint256"
        },
        {
          "indexed": false,
          "internalType": "uint256",
          "name": "_gasAfterWork",
          "type": "uint256"
        },
        {
          "indexed": false,
          "internalType": "uint256",
          "name": "_bonus",
          "type": "uint256"
        }
      ],
      "name": "GasMetered",
      "type": "event"
    },
    {
      "anonymous": false,
      "inputs": [
        {
          "indexed": false,
          "internalType": "uint256",
          "name": "_gasMultiplier",
          "type": "uint256"
        }
      ],
      "name": "GasMultiplierSet",
      "type": "event"
    },
    {
      "anonymous": false,
      "inputs": [
        {
          "indexed": false,
          "internalType": "address",
          "name": "_keep3rHelper",
          "type": "address"
        }
      ],
      "name": "Keep3rHelperSet",
      "type": "event"
    },
    {
      "anonymous": false,
      "inputs": [
        {
          "indexed": false,
          "internalType": "address",
          "name": "_bond",
          "type": "address"
        },
        {
          "indexed": false,
          "internalType": "uint256",
          "name": "_minBond",
          "type": "uint256"
        },
        {
          "indexed": false,
          "internalType": "uint256",
          "name": "_earned",
          "type": "uint256"
        },
        {
          "indexed": false,
          "internalType": "uint256",
          "name": "_age",
          "type": "uint256"
        }
      ],
      "name": "Keep3rRequirementsSet",
      "type": "event"
    },
    {
      "anonymous": false,
      "inputs": [
        {
          "indexed": false,
          "internalType": "address",
          "name": "_keep3r",
          "type": "address"
        }
      ],
      "name": "Keep3rSet",
      "type": "event"
    },
    {
      "anonymous": false,
      "inputs": [
        {
          "indexed": false,
          "internalType": "address",
          "name": "_strategy",
          "type": "address"
        }
      ],
      "name": "KeeperWorked",
      "type": "event"
    },
    {
      "anonymous": false,
      "inputs": [
        {
          "indexed": false,
          "internalType": "uint256",
          "name": "_maxMultiplier",
          "type": "uint256"
        }
      ],
      "name": "MaxMultiplierSet",
      "type": "event"
    },
    {
      "anonymous": false,
      "inputs": [
        {
          "indexed": false,
          "internalType": "bool",
          "name": "_onlyEOA",
          "type": "bool"
        }
      ],
      "name": "OnlyEOASet",
      "type": "event"
    },
    {
      "anonymous": false,
      "inputs": [
        {
          "indexed": false,
          "internalType": "bool",
          "name": "_paused",
          "type": "bool"
        }
      ],
      "name": "PauseSet",
      "type": "event"
    },
    {
      "anonymous": false,
      "inputs": [
        {
          "indexed": false,
          "internalType": "address",
          "name": "_newGovernor",
          "type": "address"
        }
      ],
      "name": "PendingGovernorAccepted",
      "type": "event"
    },
    {
      "anonymous": false,
      "inputs": [
        {
          "indexed": false,
          "internalType": "address",
          "name": "_governor",
          "type": "address"
        },
        {
          "indexed": false,
          "internalType": "address",
          "name": "_pendingGovernor",
          "type": "address"
        }
      ],
      "name": "PendingGovernorSet",
      "type": "event"
    },
    {
      "anonymous": false,
      "inputs": [
        {
          "indexed": false,
          "internalType": "address",
          "name": "_stealthRelayer",
          "type": "address"
        }
      ],
      "name": "StealthRelayerSet",
      "type": "event"
    },
    {
      "anonymous": false,
      "inputs": [
        {
          "indexed": false,
          "internalType": "address",
          "name": "_strategy",
          "type": "address"
        },
        {
          "indexed": false,
          "internalType": "uint256",
          "name": "_requiredAmount",
          "type": "uint256"
        }
      ],
      "name": "StrategyAdded",
      "type": "event"
    },
    {
      "anonymous": false,
      "inputs": [
        {
          "indexed": false,
          "internalType": "address",
          "name": "_strategy",
          "type": "address"
        },
        {
          "indexed": false,
          "internalType": "uint256",
          "name": "_requiredAmount",
          "type": "uint256"
        }
      ],
      "name": "StrategyModified",
      "type": "event"
    },
    {
      "anonymous": false,
      "inputs": [
        {
          "indexed": false,
          "internalType": "address",
          "name": "_strategy",
          "type": "address"
        }
      ],
      "name": "StrategyRemoved",
      "type": "event"
    },
    {
      "inputs": [],
      "name": "BASE",
      "outputs": [
        {
          "internalType": "uint32",
          "name": "",
          "type": "uint32"
        }
      ],
      "stateMutability": "view",
      "type": "function"
    },
    {
      "inputs": [],
      "name": "acceptPendingGovernor",
      "outputs": [],
      "stateMutability": "nonpayable",
      "type": "function"
    },
    {
      "inputs": [
        {
          "internalType": "address[]",
          "name": "_strategies",
          "type": "address[]"
        },
        {
          "internalType": "uint256[]",
          "name": "_requiredAmounts",
          "type": "uint256[]"
        }
      ],
      "name": "addStrategies",
      "outputs": [],
      "stateMutability": "nonpayable",
      "type": "function"
    },
    {
      "inputs": [
        {
          "internalType": "address",
          "name": "_strategy",
          "type": "address"
        },
        {
          "internalType": "uint256",
          "name": "_requiredAmount",
          "type": "uint256"
        }
      ],
      "name": "addStrategy",
      "outputs": [],
      "stateMutability": "nonpayable",
      "type": "function"
    },
    {
      "inputs": [
        {
          "internalType": "address",
          "name": "_strategy",
          "type": "address"
        }
      ],
      "name": "forceWork",
      "outputs": [],
      "stateMutability": "nonpayable",
      "type": "function"
    },
    {
      "inputs": [
        {
          "internalType": "address",
          "name": "_strategy",
          "type": "address"
        }
      ],
      "name": "forceWorkUnsafe",
      "outputs": [],
      "stateMutability": "nonpayable",
      "type": "function"
    },
    {
      "inputs": [],
      "name": "gasBonus",
      "outputs": [
        {
          "internalType": "uint256",
          "name": "",
          "type": "uint256"
        }
      ],
      "stateMutability": "view",
      "type": "function"
    },
    {
      "inputs": [],
      "name": "gasMultiplier",
      "outputs": [
        {
          "internalType": "uint256",
          "name": "",
          "type": "uint256"
        }
      ],
      "stateMutability": "view",
      "type": "function"
    },
    {
      "inputs": [],
      "name": "governor",
      "outputs": [
        {
          "internalType": "address",
          "name": "",
          "type": "address"
        }
      ],
      "stateMutability": "view",
      "type": "function"
    },
    {
      "inputs": [
        {
          "internalType": "address",
          "name": "_mechanic",
          "type": "address"
        }
      ],
      "name": "isMechanic",
      "outputs": [
        {
          "internalType": "bool",
          "name": "_isMechanic",
          "type": "bool"
        }
      ],
      "stateMutability": "view",
      "type": "function"
    },
    {
      "inputs": [],
      "name": "keep3r",
      "outputs": [
        {
          "internalType": "address",
          "name": "",
          "type": "address"
        }
      ],
      "stateMutability": "view",
      "type": "function"
    },
    {
      "inputs": [],
      "name": "keep3rHelper",
      "outputs": [
        {
          "internalType": "address",
          "name": "",
          "type": "address"
        }
      ],
      "stateMutability": "view",
      "type": "function"
    },
    {
      "inputs": [
        {
          "internalType": "address",
          "name": "",
          "type": "address"
        }
      ],
      "name": "lastWorkAt",
      "outputs": [
        {
          "internalType": "uint256",
          "name": "",
          "type": "uint256"
        }
      ],
      "stateMutability": "view",
      "type": "function"
    },
    {
      "inputs": [],
      "name": "maxMultiplier",
      "outputs": [
        {
          "internalType": "uint256",
          "name": "",
          "type": "uint256"
        }
      ],
      "stateMutability": "view",
      "type": "function"
    },
    {
      "inputs": [],
      "name": "mechanicsRegistry",
      "outputs": [
        {
          "internalType": "address",
          "name": "_mechanicRegistry",
          "type": "address"
        }
      ],
      "stateMutability": "view",
      "type": "function"
    },
    {
      "inputs": [],
      "name": "onlyEOA",
      "outputs": [
        {
          "internalType": "bool",
          "name": "",
          "type": "bool"
        }
      ],
      "stateMutability": "view",
      "type": "function"
    },
    {
      "inputs": [],
      "name": "paused",
      "outputs": [
        {
          "internalType": "bool",
          "name": "",
          "type": "bool"
        }
      ],
      "stateMutability": "view",
      "type": "function"
    },
    {
      "inputs": [],
      "name": "pendingGovernor",
      "outputs": [
        {
          "internalType": "address",
          "name": "",
          "type": "address"
        }
      ],
      "stateMutability": "view",
      "type": "function"
    },
    {
      "inputs": [
        {
          "internalType": "address",
          "name": "_strategy",
          "type": "address"
        }
      ],
      "name": "removeStrategy",
      "outputs": [],
      "stateMutability": "nonpayable",
      "type": "function"
    },
    {
      "inputs": [],
      "name": "requiredAge",
      "outputs": [
        {
          "internalType": "uint256",
          "name": "",
          "type": "uint256"
        }
      ],
      "stateMutability": "view",
      "type": "function"
    },
    {
      "inputs": [
        {
          "internalType": "address",
          "name": "",
          "type": "address"
        }
      ],
      "name": "requiredAmount",
      "outputs": [
        {
          "internalType": "uint256",
          "name": "",
          "type": "uint256"
        }
      ],
      "stateMutability": "view",
      "type": "function"
    },
    {
      "inputs": [],
      "name": "requiredBond",
      "outputs": [
        {
          "internalType": "address",
          "name": "",
          "type": "address"
        }
      ],
      "stateMutability": "view",
      "type": "function"
    },
    {
      "inputs": [],
      "name": "requiredEarnings",
      "outputs": [
        {
          "internalType": "uint256",
          "name": "",
          "type": "uint256"
        }
      ],
      "stateMutability": "view",
      "type": "function"
    },
    {
      "inputs": [],
      "name": "requiredMinBond",
      "outputs": [
        {
          "internalType": "uint256",
          "name": "",
          "type": "uint256"
        }
      ],
      "stateMutability": "view",
      "type": "function"
    },
    {
      "inputs": [
        {
          "internalType": "uint256",
          "name": "_gasBonus",
          "type": "uint256"
        }
      ],
      "name": "setGasBonus",
      "outputs": [],
      "stateMutability": "nonpayable",
      "type": "function"
    },
    {
      "inputs": [
        {
          "internalType": "uint256",
          "name": "_gasMultiplier",
          "type": "uint256"
        }
      ],
      "name": "setGasMultiplier",
      "outputs": [],
      "stateMutability": "nonpayable",
      "type": "function"
    },
    {
      "inputs": [
        {
          "internalType": "address",
          "name": "_keep3r",
          "type": "address"
        }
      ],
      "name": "setKeep3r",
      "outputs": [],
      "stateMutability": "nonpayable",
      "type": "function"
    },
    {
      "inputs": [
        {
          "internalType": "address",
          "name": "_keep3rHelper",
          "type": "address"
        }
      ],
      "name": "setKeep3rHelper",
      "outputs": [],
      "stateMutability": "nonpayable",
      "type": "function"
    },
    {
      "inputs": [
        {
          "internalType": "address",
          "name": "_bond",
          "type": "address"
        },
        {
          "internalType": "uint256",
          "name": "_minBond",
          "type": "uint256"
        },
        {
          "internalType": "uint256",
          "name": "_earned",
          "type": "uint256"
        },
        {
          "internalType": "uint256",
          "name": "_age",
          "type": "uint256"
        }
      ],
      "name": "setKeep3rRequirements",
      "outputs": [],
      "stateMutability": "nonpayable",
      "type": "function"
    },
    {
      "inputs": [
        {
          "internalType": "uint256",
          "name": "_maxMultiplier",
          "type": "uint256"
        }
      ],
      "name": "setMaxMultiplier",
      "outputs": [],
      "stateMutability": "nonpayable",
      "type": "function"
    },
    {
      "inputs": [
        {
          "internalType": "address",
          "name": "_mechanicsRegistry",
          "type": "address"
        }
      ],
      "name": "setMechanicsRegistry",
      "outputs": [],
      "stateMutability": "nonpayable",
      "type": "function"
    },
    {
      "inputs": [
        {
          "internalType": "bool",
          "name": "_onlyEOA",
          "type": "bool"
        }
      ],
      "name": "setOnlyEOA",
      "outputs": [],
      "stateMutability": "nonpayable",
      "type": "function"
    },
    {
      "inputs": [
        {
          "internalType": "bool",
          "name": "_paused",
          "type": "bool"
        }
      ],
      "name": "setPause",
      "outputs": [],
      "stateMutability": "nonpayable",
      "type": "function"
    },
    {
      "inputs": [
        {
          "internalType": "address",
          "name": "_pendingGovernor",
          "type": "address"
        }
      ],
      "name": "setPendingGovernor",
      "outputs": [],
      "stateMutability": "nonpayable",
      "type": "function"
    },
    {
      "inputs": [
        {
          "internalType": "address",
          "name": "_stealthRelayer",
          "type": "address"
        }
      ],
      "name": "setStealthRelayer",
      "outputs": [],
      "stateMutability": "nonpayable",
      "type": "function"
    },
    {
      "inputs": [
        {
          "internalType": "address",
          "name": "_v2Keeper",
          "type": "address"
        }
      ],
      "name": "setV2Keeper",
      "outputs": [],
      "stateMutability": "nonpayable",
      "type": "function"
    },
    {
      "inputs": [
        {
          "internalType": "uint256",
          "name": "_workCooldown",
          "type": "uint256"
        }
      ],
      "name": "setWorkCooldown",
      "outputs": [],
      "stateMutability": "nonpayable",
      "type": "function"
    },
    {
      "inputs": [],
      "name": "stealthRelayer",
      "outputs": [
        {
          "internalType": "address",
          "name": "",
          "type": "address"
        }
      ],
      "stateMutability": "view",
      "type": "function"
    },
    {
      "inputs": [],
      "name": "strategies",
      "outputs": [
        {
          "internalType": "address[]",
          "name": "_strategies",
          "type": "address[]"
        }
      ],
      "stateMutability": "view",
      "type": "function"
    },
    {
      "inputs": [
        {
          "internalType": "address",
          "name": "_strategy",
          "type": "address"
        },
        {
          "internalType": "uint256",
          "name": "_requiredAmount",
          "type": "uint256"
        }
      ],
      "name": "updateRequiredAmount",
      "outputs": [],
      "stateMutability": "nonpayable",
      "type": "function"
    },
    {
      "inputs": [
        {
          "internalType": "address[]",
          "name": "_strategies",
          "type": "address[]"
        },
        {
          "internalType": "uint256[]",
          "name": "_requiredAmounts",
          "type": "uint256[]"
        }
      ],
      "name": "updateRequiredAmounts",
      "outputs": [],
      "stateMutability": "nonpayable",
      "type": "function"
    },
    {
      "inputs": [],
      "name": "v2Keeper",
      "outputs": [
        {
          "internalType": "contract IV2Keeper",
          "name": "",
          "type": "address"
        }
      ],
      "stateMutability": "view",
      "type": "function"
    },
    {
      "inputs": [
        {
          "internalType": "address",
          "name": "_strategy",
          "type": "address"
        }
      ],
      "name": "work",
      "outputs": [],
      "stateMutability": "nonpayable",
      "type": "function"
    },
    {
      "inputs": [],
      "name": "workCooldown",
      "outputs": [
        {
          "internalType": "uint256",
          "name": "",
          "type": "uint256"
        }
      ],
      "stateMutability": "view",
      "type": "function"
    },
    {
      "inputs": [
        {
          "internalType": "address",
          "name": "_strategy",
          "type": "address"
        }
      ],
      "name": "workable",
      "outputs": [
        {
          "internalType": "bool",
          "name": "_isWorkable",
          "type": "bool"
        }
      ],
      "stateMutability": "view",
      "type": "function"
    }
  ],
  "transactionHash": "0x64ad32a1c259955f4b5fcab1bf5433fc5cf222bce2e5c0643e362f8140f57f85",
  "args": [
    "0x2c01b4ad51a67e2d8f02208f54df9ac4c0b778b6",
    "0xe8d5a85758fe98f7dce251cad552691d49b499bb",
    "0x0a61c2146a7800bdc278833f21ebf56cd660ee2a",
    "0x736d7e3c5a6cb2ce3b764300140abf476f6cfccf",
    21600,
    "0xeb02addCfD8B773A5FFA6B9d1FE99c566f8c44CC",
    "0xeDDe080E28Eb53532bD1804de51BD9Cd5cADF0d4",
    "0x1cEB5cB57C4D4E2b2433641b95Dd330A33185A44",
    "50000000000000000000",
    0,
    0,
    true
  ],
  "numDeployments": 2,
  "solcInputHash": "484a2ce5c16a9165290bdc8c99a4f2fb",
  "bytecode": "0x60806040526009805474eb02addcfd8b773a5ffa6b9d1fe99c566f8c44cc00610100600160a81b0319909116179055600a80546001600160a01b031990811673edde080e28eb53532bd1804de51bd9cd5cadf0d41790915562018e70600b55612710600c55613a98600d55600e8054909116731ceb5cb57c4d4e2b2433641b95dd330a33185a441790556802b5e3af16b1880000600f55348015620000a357600080fd5b506040516200227d3803806200227d833981016040819052620000c69162000473565b600080546001600160a01b0319166001600160a01b038d161790558b898c8a81846001600160a01b0381166200010f5760405163d92e233d60e01b815260040160405180910390fd5b600180546001600160a01b03199081166001600160a01b03938416179091556003805490911691861691909117905550801562000151576200015181620001e0565b5050505062000166876200020760201b60201c565b620001718662000264565b6200017c8a620002b3565b6200018a858585856200030a565b620001958162000384565b620001a362022f60620003c6565b620001ce6103e8600c54610352620001bc91906200054c565b620001c891906200057a565b620003fc565b5050505050505050505050506200059d565b806000036200020257604051636972b64d60e01b815260040160405180910390fd5b600855565b60098054610100600160a81b0319166101006001600160a01b038416908102919091179091556040519081527f0fec338132ef1fa68cd11242357e5e5e5af67dfd0c957b53ef411bca535817ef906020015b60405180910390a150565b600a80546001600160a01b0319166001600160a01b0383169081179091556040519081527f77e14ebc8982ca2b21d8410b77a6ca8a857864dfab5d337f154fbacea73c11919060200162000259565b60128054610100600160a81b0319166101006001600160a01b038416908102919091179091556040519081527f4803a65acc131d65526972ad19dbfa7490ed1f24f6ece0c71f4898d86a01b69b9060200162000259565b600e80546001600160a01b0319166001600160a01b038616908117909155600f8490556010839055601182905560408051918252602082018590528101839052606081018290527fadc260414d0381ec9727c6f819aa0ebe789ad81016c176765f40d3bc301e5d6b9060800160405180910390a150505050565b6012805460ff19168215159081179091556040519081527fa9bf0ee725a8887f07a03c36e33aa100bb0218d44b9fff855be8504c480ab99b9060200162000259565b600b8190556040518181527f6c434ba0e7a3588c2330d8f479f247d9269f069a8d630dbb2cb60a7382a487f09060200162000259565b600d54811115620004205760405163cd9ba70160e01b815260040160405180910390fd5b600c8190556040518181527f2985ceccbff6f8695faca980a17eb9a590d2f080d024f944d3c7743ba038c3999060200162000259565b80516001600160a01b03811681146200046e57600080fd5b919050565b6000806000806000806000806000806000806101808d8f0312156200049757600080fd5b620004a28d62000456565b9b50620004b260208e0162000456565b9a50620004c260408e0162000456565b9950620004d260608e0162000456565b985060808d01519750620004e960a08e0162000456565b9650620004f960c08e0162000456565b95506200050960e08e0162000456565b94506101008d015193506101208d015192506101408d015191506101608d015180151581146200053857600080fd5b809150509295989b509295989b509295989b565b60008160001904831182151516156200057557634e487b7160e01b600052601160045260246000fd5b500290565b6000826200059857634e487b7160e01b600052601260045260246000fd5b500490565b611cd080620005ad6000396000f3fe608060405234801561001057600080fd5b506004361061027f5760003560e01c806372da828a1161015c578063d9f9027f116100ce578063ef47da6d11610087578063ef47da6d1461057e578063f11a1d1a14610591578063f235757f146105a4578063f7ac5fc6146105b7578063fb2a410a146105ca578063fbea5709146105d757600080fd5b8063d9f9027f14610513578063dd7ba42014610528578063e06a7cb91461053b578063e3056a3414610544578063ea3c2b9c14610557578063ec342ad01461056057600080fd5b806390f296431161012057806390f29643146104a157806392b3b265146104b45780639f471303146104c7578063b9a52e28146104da578063bedb86fb146104ed578063c9411e221461050057600080fd5b806372da828a1461044c57806373da47c81461045f57806374c2ca8314610468578063780b5c231461047b5780638c9341f11461048e57600080fd5b806326e6cd26116101f55780635905b407116101b95780635905b407146103df5780635c975abb146103f257806362ba54a91461040f578063634c7bb51461041857806365834acc146104305780636b1b6e3e1461044357600080fd5b806326e6cd261461037357806328584aa71461038657806336df7ea5146103a65780633ff8bbf6146103b95780634cc18e57146103cc57600080fd5b806313f6986d1161024757806313f6986d1461031157806314f29a1d1461031957806316ea58da1461032c578063175188e814610335578063259428a01461034857806325fc3b221461036057600080fd5b806301526a43146102845780630187aea0146102995780630c340a24146102b557806310262803146102e05780631078f38814610300575b600080fd5b610297610292366004611984565b6105ea565b005b6102a2600d5481565b6040519081526020015b60405180910390f35b6001546102c8906001600160a01b031681565b6040516001600160a01b0390911681526020016102ac565b6102a26102ee3660046119b2565b60076020526000908152604090205481565b6000546001600160a01b03166102c8565b610297610621565b610297610327366004611984565b610656565b6102a2600b5481565b6102976103433660046119b2565b61068a565b6012546102c89061010090046001600160a01b031681565b61029761036e366004611a1b565b61069c565b6102976103813660046119b2565b610731565b6102a26103943660046119b2565b60066020526000908152604090205481565b6102976103b43660046119b2565b61077a565b600e546102c8906001600160a01b031681565b6102976103da3660046119b2565b6109eb565b6102976103ed366004611a87565b610a1f565b6009546103ff9060ff1681565b60405190151581526020016102ac565b6102a260105481565b6009546102c89061010090046001600160a01b031681565b6103ff61043e3660046119b2565b610a5c565b6102a260115481565b61029761045a3660046119b2565b610ad2565b6102a2600f5481565b610297610476366004611984565b610b06565b610297610489366004611ad0565b610b18565b61029761049c3660046119b2565b610b4c565b6102976104af366004611984565b610b80565b6003546102c8906001600160a01b031681565b6103ff6104d53660046119b2565b610bb4565b6102976104e8366004611aed565b610bbf565b6102976104fb366004611ad0565b610bd6565b61029761050e366004611aed565b610c0a565b61051b610c1d565b6040516102ac9190611b19565b6102976105363660046119b2565b610ccc565b6102a260085481565b6002546102c8906001600160a01b031681565b6102a2600c5481565b61056961271081565b60405163ffffffff90911681526020016102ac565b61029761058c3660046119b2565b610d89565b600a546102c8906001600160a01b031681565b6102976105b23660046119b2565b610dd2565b6102976105c53660046119b2565b610e06565b6012546103ff9060ff1681565b6102976105e5366004611a1b565b610e18565b6001546001600160a01b031633146106155760405163070545c960e51b815260040160405180910390fd5b61061e81610ea6565b50565b6002546001600160a01b0316331461064c57604051639ba0305d60e01b815260040160405180910390fd5b610654610ee2565b565b6001546001600160a01b031633146106815760405163070545c960e51b815260040160405180910390fd5b61061e81610f40565b61069333610f98565b61061e81610fda565b6106a533610f98565b8281146106c5576040516381e4d28d60e01b815260040160405180910390fd5b60005b8381101561072a576107188585838181106106e5576106e5611b66565b90506020020160208101906106fa91906119b2565b84848481811061070c5761070c611b66565b90506020020135611060565b8061072281611b92565b9150506106c8565b5050505050565b6001546001600160a01b0316331461075c5760405163070545c960e51b815260040160405180910390fd5b600380546001600160a01b0319166001600160a01b03831617905550565b60006107846110f6565b60125490915061010090046001600160a01b031633146107b7576040516332ca9ab360e11b815260040160405180910390fd5b6000601260019054906101000a90046001600160a01b03166001600160a01b031663fc9c8d396040518163ffffffff1660e01b8152600401602060405180830381865afa15801561080c573d6000803e3d6000fd5b505050506040513d601f19601f820116820180604052508101906108309190611bab565b905061083b81611115565b60095460ff161561085f576040516313d0ff5960e31b815260040160405180910390fd5b61086883611132565b60006108726110f6565b600a54600b549192506000916001600160a01b0390911690632248e82d90859061089c8689611bc8565b6108a69190611bdf565b6040516001600160e01b031960e085901b1681526001600160a01b0390921660048301526024820152604401602060405180830381865afa1580156108ef573d6000803e3d6000fd5b505050506040513d601f19601f820116820180604052508101906109139190611bf7565b600c54909150612710906109279083611c10565b6109319190611c2f565b6009546040516308a336b960e11b81526001600160a01b03868116600483015260248201849052929350610100909104909116906311466d7290604401600060405180830381600087803b15801561098857600080fd5b505af115801561099c573d6000803e3d6000fd5b5050600b54604080518881526020810187905280820192909252517f5b3acbf5cbe55940e1bd9235bb985ccca97e9028d7489290f08e6504e76b88d39350908190036060019150a15050505050565b6001546001600160a01b03163314610a165760405163070545c960e51b815260040160405180910390fd5b61061e816111b5565b6001546001600160a01b03163314610a4a5760405163070545c960e51b815260040160405180910390fd5b610a568484848461120b565b50505050565b60008054604051631960d2b360e21b81526001600160a01b038481166004830152909116906365834acc906024015b602060405180830381865afa158015610aa8573d6000803e3d6000fd5b505050506040513d601f19601f82011682018060405250810190610acc9190611c51565b92915050565b6001546001600160a01b03163314610afd5760405163070545c960e51b815260040160405180910390fd5b61061e81611285565b610b0f33610f98565b61061e816112d3565b6001546001600160a01b03163314610b435760405163070545c960e51b815260040160405180910390fd5b61061e816112f9565b6001546001600160a01b03163314610b775760405163070545c960e51b815260040160405180910390fd5b61061e8161133a565b6001546001600160a01b03163314610bab5760405163070545c960e51b815260040160405180910390fd5b61061e81611390565b6000610acc826113c5565b610bc833610f98565b610bd28282611412565b5050565b6001546001600160a01b03163314610c015760405163070545c960e51b815260040160405180910390fd5b61061e8161149b565b610c1333610f98565b610bd28282611060565b6060610c296004611507565b67ffffffffffffffff811115610c4157610c41611c6e565b604051908082528060200260200182016040528015610c6a578160200160208202803683370190505b50905060005b610c7a6004611507565b811015610cc857610c8c600482611511565b828281518110610c9e57610c9e611b66565b6001600160a01b039092166020928302919091019091015280610cc081611b92565b915050610c70565b5090565b60125461010090046001600160a01b03163314610cfc576040516332ca9ab360e11b815260040160405180910390fd5b6000601260019054906101000a90046001600160a01b03166001600160a01b031663fc9c8d396040518163ffffffff1660e01b8152600401602060405180830381865afa158015610d51573d6000803e3d6000fd5b505050506040513d601f19601f82011682018060405250810190610d759190611bab565b9050610d8081610f98565b610bd282611524565b6001546001600160a01b03163314610db45760405163070545c960e51b815260040160405180910390fd5b600080546001600160a01b0319166001600160a01b03831617905550565b6001546001600160a01b03163314610dfd5760405163070545c960e51b815260040160405180910390fd5b61061e81611566565b610e0f33610f98565b61061e81611524565b610e2133610f98565b828114610e41576040516381e4d28d60e01b815260040160405180910390fd5b60005b8381101561072a57610e94858583818110610e6157610e61611b66565b9050602002016020810190610e7691906119b2565b848484818110610e8857610e88611b66565b90506020020135611412565b80610e9e81611b92565b915050610e44565b600d8190556040518181527fad852bc3e1d8ed93d9b2d9290bdb1d945c12994fd7b826f5ff91ec56245aefda906020015b60405180910390a150565b60028054600180546001600160a01b0383166001600160a01b031991821681179092559091169091556040519081527f5d5d6e01b731c3e68060f7fe13156f6197d4aeffc2d6f498e34c717ae616b7349060200160405180910390a1565b600d54811115610f635760405163cd9ba70160e01b815260040160405180910390fd5b600c8190556040518181527f2985ceccbff6f8695faca980a17eb9a590d2f080d024f944d3c7743ba038c39990602001610ed7565b6001546001600160a01b03828116911614801590610fbc5750610fba81610a5c565b155b1561061e576040516306a22f2960e01b815260040160405180910390fd5b610fe56004826115e9565b61100257604051638716f5eb60e01b815260040160405180910390fd5b6001600160a01b03811660009081526006602052604081205561102660048261160b565b506040516001600160a01b03821681527f09a1db4b80c32706328728508c941a6b954f31eb5affd32f236c1fd405f8fea490602001610ed7565b61106b6004836115e9565b156110895760405163165e236760e01b815260040160405180910390fd5b6001600160a01b0382166000908152600660205260409020819055604080516001600160a01b0384168152602081018390527f2f564a83158ad1831793ad3e69257b52f39ece5d49cb0d8746708ecb9ef964da910160405180910390a16110f1600483611620565b505050565b6000603f5a611106906040611c10565b6111109190611c2f565b905090565b60125460ff16156111295761112981611635565b61061e8161165e565b61113b816113c5565b611158576040516398ae0b2160e01b815260040160405180910390fd5b6001600160a01b038116600090815260076020526040902042905561117c81611718565b6040516001600160a01b03821681527fac848b4596fbd35b139e8ee158748a1c8091becf3e830c628b4a79ad869d170290602001610ed7565b60098054610100600160a81b0319166101006001600160a01b038416908102919091179091556040519081527f0fec338132ef1fa68cd11242357e5e5e5af67dfd0c957b53ef411bca535817ef90602001610ed7565b600e80546001600160a01b0319166001600160a01b038616908117909155600f8490556010839055601182905560408051918252602082018590528101839052606081018290527fadc260414d0381ec9727c6f819aa0ebe789ad81016c176765f40d3bc301e5d6b9060800160405180910390a150505050565b600a80546001600160a01b0319166001600160a01b0383169081179091556040519081527f77e14ebc8982ca2b21d8410b77a6ca8a857864dfab5d337f154fbacea73c119190602001610ed7565b806000036112f457604051636972b64d60e01b815260040160405180910390fd5b600855565b6012805460ff19168215159081179091556040519081527fa9bf0ee725a8887f07a03c36e33aa100bb0218d44b9fff855be8504c480ab99b90602001610ed7565b60128054610100600160a81b0319166101006001600160a01b038416908102919091179091556040519081527f4803a65acc131d65526972ad19dbfa7490ed1f24f6ece0c71f4898d86a01b69b90602001610ed7565b600b8190556040518181527f6c434ba0e7a3588c2330d8f479f247d9269f069a8d630dbb2cb60a7382a487f090602001610ed7565b60006113d082611773565b6113dc57506000919050565b816001600160a01b031663ed882c2b6113f4846117e5565b6040518263ffffffff1660e01b8152600401610a8b91815260200190565b61141d6004836115e9565b61143a57604051638716f5eb60e01b815260040160405180910390fd5b6001600160a01b0382166000908152600660205260409020819055604080516001600160a01b0384168152602081018390527fe4471c38177bd412e0358beccddbe74bad9465520f4f24a76c013bd404b0b0de910160405180910390a15050565b60095481151560ff9091161515036114c6576040516337fe120d60e21b815260040160405180910390fd5b6009805460ff19168215159081179091556040519081527f878ac8a2ca79520471f8f3c8494fa802c03ce3bf034252aad7f22318984fdbdb90602001610ed7565b6000610acc825490565b600061151d8383611818565b9392505050565b61152d81611718565b6040516001600160a01b03821681527fee8d688761ac1d0fda49e2ac999f0e46b3beaf16857a8e8905aeab2987dc8d3890602001610ed7565b6001600160a01b03811661158d5760405163d92e233d60e01b815260040160405180910390fd5b600280546001600160a01b0319166001600160a01b038381169182179092556001546040805191909316815260208101919091527f6353ec38ac394f8be94bfafcdd3580d356470599059eaeebedc3207e1cc03dec9101610ed7565b6001600160a01b0381166000908152600183016020526040812054151561151d565b600061151d836001600160a01b038416611842565b600061151d836001600160a01b038416611935565b6001600160a01b038116321461061e57604051639f8129d160e01b815260040160405180910390fd5b600954600e54600f54601054601154604051637cea367960e11b81526001600160a01b0387811660048301529485166024820152604481019390935260648301919091526084820152610100909204169063f9d46cf29060a4016020604051808303816000875af11580156116d7573d6000803e3d6000fd5b505050506040513d601f19601f820116820180604052508101906116fb9190611c51565b61061e57604051636959565560e11b815260040160405180910390fd5b60035460405163072e008f60e11b81526001600160a01b03838116600483015290911690630e5c011e90602401600060405180830381600087803b15801561175f57600080fd5b505af115801561072a573d6000803e3d6000fd5b60006117806004836115e9565b61179d57604051638716f5eb60e01b815260040160405180910390fd5b60085415806117d057506008546001600160a01b0383166000908152600760205260409020546117cd9190611bdf565b42115b156117dd57506001919050565b506000919050565b6001600160a01b03811660009081526006602052604081205480820361180e5750600092915050565b61151d4882611c10565b600082600001828154811061182f5761182f611b66565b9060005260206000200154905092915050565b6000818152600183016020526040812054801561192b576000611866600183611bc8565b855490915060009061187a90600190611bc8565b90508181146118df57600086600001828154811061189a5761189a611b66565b90600052602060002001549050808760000184815481106118bd576118bd611b66565b6000918252602080832090910192909255918252600188019052604090208390555b85548690806118f0576118f0611c84565b600190038181906000526020600020016000905590558560010160008681526020019081526020016000206000905560019350505050610acc565b6000915050610acc565b600081815260018301602052604081205461197c57508154600181810184556000848152602080822090930184905584548482528286019093526040902091909155610acc565b506000610acc565b60006020828403121561199657600080fd5b5035919050565b6001600160a01b038116811461061e57600080fd5b6000602082840312156119c457600080fd5b813561151d8161199d565b60008083601f8401126119e157600080fd5b50813567ffffffffffffffff8111156119f957600080fd5b6020830191508360208260051b8501011115611a1457600080fd5b9250929050565b60008060008060408587031215611a3157600080fd5b843567ffffffffffffffff80821115611a4957600080fd5b611a55888389016119cf565b90965094506020870135915080821115611a6e57600080fd5b50611a7b878288016119cf565b95989497509550505050565b60008060008060808587031215611a9d57600080fd5b8435611aa88161199d565b966020860135965060408601359560600135945092505050565b801515811461061e57600080fd5b600060208284031215611ae257600080fd5b813561151d81611ac2565b60008060408385031215611b0057600080fd5b8235611b0b8161199d565b946020939093013593505050565b6020808252825182820181905260009190848201906040850190845b81811015611b5a5783516001600160a01b031683529284019291840191600101611b35565b50909695505050505050565b634e487b7160e01b600052603260045260246000fd5b634e487b7160e01b600052601160045260246000fd5b600060018201611ba457611ba4611b7c565b5060010190565b600060208284031215611bbd57600080fd5b815161151d8161199d565b600082821015611bda57611bda611b7c565b500390565b60008219821115611bf257611bf2611b7c565b500190565b600060208284031215611c0957600080fd5b5051919050565b6000816000190483118215151615611c2a57611c2a611b7c565b500290565b600082611c4c57634e487b7160e01b600052601260045260246000fd5b500490565b600060208284031215611c6357600080fd5b815161151d81611ac2565b634e487b7160e01b600052604160045260246000fd5b634e487b7160e01b600052603160045260246000fdfea26469706673582212204a835b14df49a425243762b6ae5dfb978395477804b405fb5332c16813e850f364736f6c634300080f0033",
  "devdoc": {
    "kind": "dev",
    "methods": {
      "addStrategies(address[],uint256[])": {
        "params": {
          "_requiredAmount": "Array of amount of gas that each strategy requires to execute",
          "_strategies": "Array of addresses of strategies to add"
        }
      },
      "addStrategy(address,uint256)": {
        "params": {
          "_requiredAmount": "Amount of gas that the strategy requires to execute",
          "_strategy": "Address of the strategy to add"
        }
      },
      "forceWork(address)": {
        "params": {
          "_strategy": "Address of the strategy to be worked"
        }
      },
      "forceWorkUnsafe(address)": {
        "params": {
          "_strategy": "Address of the strategy to be worked"
        }
      },
      "removeStrategy(address)": {
        "params": {
          "_strategy": "Address of the strategy to remove"
        }
      },
      "setGasBonus(uint256)": {
        "params": {
          "_gasBonus": "New amount of gas to add to cover unaccounted gas"
        }
      },
      "setGasMultiplier(uint256)": {
        "params": {
          "_gasMultiplier": "New multiplier that boosts gas record to calculate the keeper reward"
        }
      },
      "setKeep3r(address)": {
        "params": {
          "_keep3r": "Address of the new Keep3r contract"
        }
      },
      "setKeep3rHelper(address)": {
        "params": {
          "_keep3rHelper": "Address of the new Keep3rHelper contract"
        }
      },
      "setKeep3rRequirements(address,uint256,uint256,uint256)": {
        "params": {
          "_age": "Amount of seconds since keeper registration required to work the job",
          "_bond": "Address of the token required to bond to work the job",
          "_earned": "Amount of KP3R earnings required to work the job",
          "_minBond": "Amount of tokens required to bond to work the job"
        }
      },
      "setMaxMultiplier(uint256)": {
        "params": {
          "_maxMultiplier": "New maximum acceptable gasMultiplier to be set"
        }
      },
      "setMechanicsRegistry(address)": {
        "params": {
          "_mechanicsRegistry": "Address of the new MechanicsRegistry contract"
        }
      },
      "setOnlyEOA(bool)": {
        "params": {
          "_onlyEOA": "Whether the keeper is required to be an EOA or not"
        }
      },
      "setPause(bool)": {
        "params": {
          "_paused": "Whether the contract should be paused or not"
        }
      },
      "setPendingGovernor(address)": {
        "params": {
          "_pendingGovernor": "Address of the proposed new governor"
        }
      },
      "setStealthRelayer(address)": {
        "params": {
          "_stealthRelayer": "Address of the new StealthRelayer contract"
        }
      },
      "setV2Keeper(address)": {
        "params": {
          "_v2Keeper": "Address of the new v2Keeper to set"
        }
      },
      "setWorkCooldown(uint256)": {
        "params": {
          "_workCooldown": "Amount of seconds to wait until a strategy can be worked again"
        }
      },
      "strategies()": {
        "returns": {
          "_strategies": "List of added strategies"
        }
      },
      "updateRequiredAmount(address,uint256)": {
        "params": {
          "_requiredAmount": "New amount of gas that te strategy requires to execute",
          "_strategy": "Address of the strategy to modify"
        }
      },
      "updateRequiredAmounts(address[],uint256[])": {
        "params": {
          "_requiredAmounts": "Array of new amounts of gas that each strategy requires to execute",
          "_strategies": "Array of addresses of strategies to modify"
        }
      },
      "work(address)": {
        "params": {
          "_strategy": "Address of the strategy to be worked"
        }
      },
      "workable(address)": {
        "params": {
          "_strategy": "Address of the strategy to query"
        },
        "returns": {
          "_isWorkable": "Whether the queried strategy is workable or not"
        }
      }
    },
    "version": 1
  },
  "userdoc": {
    "errors": {
      "KeeperNotValid()": [
        {
          "notice": "Throws when a keeper fails the validation"
        }
      ],
      "NoChangeInPause()": [
        {
          "notice": "Throws when governor tries to switch pause to the same state as before"
        }
      ],
      "OnlyEOA()": [
        {
          "notice": "Throws when keeper is not tx.origin"
        }
      ],
      "OnlyGovernor()": [
        {
          "notice": "Throws if a non-governor user tries to call a OnlyGovernor function"
        }
      ],
      "OnlyGovernorOrMechanic()": [
        {
          "notice": "Throws when a OnlyGovernorOrMechanic function is called from an unknown address"
        }
      ],
      "OnlyPendingGovernor()": [
        {
          "notice": "Throws if a non-pending-governor user tries to call a OnlyPendingGovernor function"
        }
      ],
      "OnlyStealthRelayer()": [
        {
          "notice": "Throws when a OnlyStealthRelayer function is called from an unknown address"
        }
      ],
      "Paused()": [
        {
          "notice": "Throws when a keeper tries to work a paused contract"
        }
      ],
      "StrategyAlreadyAdded()": [
        {
          "notice": "Throws if the strategy being added has already been added"
        }
      ],
      "StrategyNotAdded()": [
        {
          "notice": "Throws if the strategy being summoned is not added"
        }
      ],
      "StrategyNotWorkable()": [
        {
          "notice": "Throws if a keeper tries to work a non-workable strategy"
        }
      ],
      "WrongLengths()": [
        {
          "notice": "Throws if a set of correlated input param arrays differ in lengths"
        }
      ],
      "ZeroAddress()": [
        {
          "notice": "Throws if a variable is assigned to the zero address"
        }
      ],
      "ZeroCooldown()": [
        {
          "notice": "Throws if the cooldown is being set to 0"
        }
      ]
    },
    "events": {
      "ForceWorked(address)": {
        "notice": "Emitted when a strategy is force-worked by governor or mechanic"
      },
      "GasBonusSet(uint256)": {
        "notice": "Emitted when a new gas bonus amount is set"
      },
      "GasMetered(uint256,uint256,uint256)": {
        "notice": "Emitted when a metered job is worked"
      },
      "GasMultiplierSet(uint256)": {
        "notice": "Emitted when a new gas bonus multiplier is set"
      },
      "Keep3rHelperSet(address)": {
        "notice": "Emitted when a new Keep3rHelper contract is set"
      },
      "Keep3rRequirementsSet(address,uint256,uint256,uint256)": {
        "notice": "Emitted when a new set of requirements is set"
      },
      "Keep3rSet(address)": {
        "notice": "Emitted when a new Keep3r contract is set"
      },
      "KeeperWorked(address)": {
        "notice": "Emitted when a strategy is worked"
      },
      "MaxMultiplierSet(uint256)": {
        "notice": "Emitted when a new gas bonus multiplier maximum is set"
      },
      "OnlyEOASet(bool)": {
        "notice": "Emitted when onlyEOA is set"
      },
      "PauseSet(bool)": {
        "notice": "Emitted when the contract pause is switched"
      },
      "PendingGovernorAccepted(address)": {
        "notice": "Emitted when a new governor is set"
      },
      "PendingGovernorSet(address,address)": {
        "notice": "Emitted when a new pending governor is set"
      },
      "StealthRelayerSet(address)": {
        "notice": "Emitted when a new StealthRelayer contract is set"
      },
      "StrategyAdded(address,uint256)": {
        "notice": "Emitted when a new strategy is added"
      },
      "StrategyModified(address,uint256)": {
        "notice": "Emitted when a strategy is modified"
      },
      "StrategyRemoved(address)": {
        "notice": "Emitted when a strategy is removed"
      }
    },
    "kind": "user",
    "methods": {
      "acceptPendingGovernor()": {
        "notice": "Allows a proposed governor to accept the governance"
      },
      "forceWork(address)": {
        "notice": "Function to be called by governor or mechanics that triggers the execution of the given strategyThis function bypasses the workable checks"
      },
      "forceWorkUnsafe(address)": {
        "notice": "Function to be called by governor or mechanic that triggers the execution of the given strategyThis function bypasses the stealth relayer checks"
      },
      "setGasBonus(uint256)": {
        "notice": "Allows governor to set a new gas bonus amount"
      },
      "setGasMultiplier(uint256)": {
        "notice": "Allows governor to set a new gas multiplier"
      },
      "setKeep3r(address)": {
        "notice": "Allows governor to set a new Keep3r contract"
      },
      "setKeep3rHelper(address)": {
        "notice": "Allows governor to set a new Keep3rHelper contract"
      },
      "setKeep3rRequirements(address,uint256,uint256,uint256)": {
        "notice": "Allows the governor to set new requirements to work the job"
      },
      "setMaxMultiplier(uint256)": {
        "notice": "Allows governor to set a new gas multiplier maximum"
      },
      "setMechanicsRegistry(address)": {
        "notice": "Allows governor to set a new MechanicsRegistry contract"
      },
      "setOnlyEOA(bool)": {
        "notice": "Allows governor to set the onlyEOA condition"
      },
      "setPause(bool)": {
        "notice": "Allows governor to pause or unpause the contract"
      },
      "setPendingGovernor(address)": {
        "notice": "Allows a governor to propose a new governor"
      },
      "setStealthRelayer(address)": {
        "notice": "Allows governor to set a new StealthRelayer contract"
      },
      "work(address)": {
        "notice": "Function to be called by the keeper that triggers the execution of the given strategy"
      }
    },
    "version": 1
  },
  "storageLayout": {
    "storage": [
      {
        "astId": 1234,
        "contract": "solidity/contracts/HarvestV2Keep3rStealthJob.sol:HarvestV2Keep3rStealthJob",
        "label": "_mechanicsRegistry",
        "offset": 0,
        "slot": "0",
        "type": "t_contract(IMechanicsRegistry)1341"
      },
      {
        "astId": 2976,
        "contract": "solidity/contracts/HarvestV2Keep3rStealthJob.sol:HarvestV2Keep3rStealthJob",
        "label": "governor",
        "offset": 0,
        "slot": "1",
        "type": "t_address"
      },
      {
        "astId": 2979,
        "contract": "solidity/contracts/HarvestV2Keep3rStealthJob.sol:HarvestV2Keep3rStealthJob",
        "label": "pendingGovernor",
        "offset": 0,
        "slot": "2",
        "type": "t_address"
      },
      {
        "astId": 1718,
        "contract": "solidity/contracts/HarvestV2Keep3rStealthJob.sol:HarvestV2Keep3rStealthJob",
        "label": "v2Keeper",
        "offset": 0,
        "slot": "3",
        "type": "t_contract(IV2Keeper)6281"
      },
      {
        "astId": 1721,
        "contract": "solidity/contracts/HarvestV2Keep3rStealthJob.sol:HarvestV2Keep3rStealthJob",
        "label": "_availableStrategies",
        "offset": 0,
        "slot": "4",
        "type": "t_struct(AddressSet)933_storage"
      },
      {
        "astId": 1726,
        "contract": "solidity/contracts/HarvestV2Keep3rStealthJob.sol:HarvestV2Keep3rStealthJob",
        "label": "requiredAmount",
        "offset": 0,
        "slot": "6",
        "type": "t_mapping(t_address,t_uint256)"
      },
      {
        "astId": 1731,
        "contract": "solidity/contracts/HarvestV2Keep3rStealthJob.sol:HarvestV2Keep3rStealthJob",
        "label": "lastWorkAt",
        "offset": 0,
        "slot": "7",
        "type": "t_mapping(t_address,t_uint256)"
      },
      {
        "astId": 1734,
        "contract": "solidity/contracts/HarvestV2Keep3rStealthJob.sol:HarvestV2Keep3rStealthJob",
        "label": "workCooldown",
        "offset": 0,
        "slot": "8",
        "type": "t_uint256"
      },
      {
        "astId": 3812,
        "contract": "solidity/contracts/HarvestV2Keep3rStealthJob.sol:HarvestV2Keep3rStealthJob",
        "label": "paused",
        "offset": 0,
        "slot": "9",
        "type": "t_bool"
      },
      {
        "astId": 3206,
        "contract": "solidity/contracts/HarvestV2Keep3rStealthJob.sol:HarvestV2Keep3rStealthJob",
        "label": "keep3r",
        "offset": 1,
        "slot": "9",
        "type": "t_address"
      },
      {
        "astId": 3281,
        "contract": "solidity/contracts/HarvestV2Keep3rStealthJob.sol:HarvestV2Keep3rStealthJob",
        "label": "keep3rHelper",
        "offset": 0,
        "slot": "10",
        "type": "t_address"
      },
      {
        "astId": 3285,
        "contract": "solidity/contracts/HarvestV2Keep3rStealthJob.sol:HarvestV2Keep3rStealthJob",
        "label": "gasBonus",
        "offset": 0,
        "slot": "11",
        "type": "t_uint256"
      },
      {
        "astId": 3289,
        "contract": "solidity/contracts/HarvestV2Keep3rStealthJob.sol:HarvestV2Keep3rStealthJob",
        "label": "gasMultiplier",
        "offset": 0,
        "slot": "12",
        "type": "t_uint256"
      },
      {
        "astId": 3297,
        "contract": "solidity/contracts/HarvestV2Keep3rStealthJob.sol:HarvestV2Keep3rStealthJob",
        "label": "maxMultiplier",
        "offset": 0,
        "slot": "13",
        "type": "t_uint256"
      },
      {
        "astId": 3103,
        "contract": "solidity/contracts/HarvestV2Keep3rStealthJob.sol:HarvestV2Keep3rStealthJob",
        "label": "requiredBond",
        "offset": 0,
        "slot": "14",
        "type": "t_address"
      },
      {
        "astId": 3107,
        "contract": "solidity/contracts/HarvestV2Keep3rStealthJob.sol:HarvestV2Keep3rStealthJob",
        "label": "requiredMinBond",
        "offset": 0,
        "slot": "15",
        "type": "t_uint256"
      },
      {
        "astId": 3110,
        "contract": "solidity/contracts/HarvestV2Keep3rStealthJob.sol:HarvestV2Keep3rStealthJob",
        "label": "requiredEarnings",
        "offset": 0,
        "slot": "16",
        "type": "t_uint256"
      },
      {
        "astId": 3113,
        "contract": "solidity/contracts/HarvestV2Keep3rStealthJob.sol:HarvestV2Keep3rStealthJob",
        "label": "requiredAge",
        "offset": 0,
        "slot": "17",
        "type": "t_uint256"
      },
      {
        "astId": 3759,
        "contract": "solidity/contracts/HarvestV2Keep3rStealthJob.sol:HarvestV2Keep3rStealthJob",
        "label": "onlyEOA",
        "offset": 0,
        "slot": "18",
        "type": "t_bool"
      },
      {
        "astId": 3537,
        "contract": "solidity/contracts/HarvestV2Keep3rStealthJob.sol:HarvestV2Keep3rStealthJob",
        "label": "stealthRelayer",
        "offset": 1,
        "slot": "18",
        "type": "t_address"
      }
    ],
    "types": {
      "t_address": {
        "encoding": "inplace",
        "label": "address",
        "numberOfBytes": "20"
      },
      "t_array(t_bytes32)dyn_storage": {
        "base": "t_bytes32",
        "encoding": "dynamic_array",
        "label": "bytes32[]",
        "numberOfBytes": "32"
      },
      "t_bool": {
        "encoding": "inplace",
        "label": "bool",
        "numberOfBytes": "1"
      },
      "t_bytes32": {
        "encoding": "inplace",
        "label": "bytes32",
        "numberOfBytes": "32"
      },
      "t_contract(IMechanicsRegistry)1341": {
        "encoding": "inplace",
        "label": "contract IMechanicsRegistry",
        "numberOfBytes": "20"
      },
      "t_contract(IV2Keeper)6281": {
        "encoding": "inplace",
        "label": "contract IV2Keeper",
        "numberOfBytes": "20"
      },
      "t_mapping(t_address,t_uint256)": {
        "encoding": "mapping",
        "key": "t_address",
        "label": "mapping(address => uint256)",
        "numberOfBytes": "32",
        "value": "t_uint256"
      },
      "t_mapping(t_bytes32,t_uint256)": {
        "encoding": "mapping",
        "key": "t_bytes32",
        "label": "mapping(bytes32 => uint256)",
        "numberOfBytes": "32",
        "value": "t_uint256"
      },
      "t_struct(AddressSet)933_storage": {
        "encoding": "inplace",
        "label": "struct EnumerableSet.AddressSet",
        "members": [
          {
            "astId": 932,
            "contract": "solidity/contracts/HarvestV2Keep3rStealthJob.sol:HarvestV2Keep3rStealthJob",
            "label": "_inner",
            "offset": 0,
            "slot": "0",
            "type": "t_struct(Set)632_storage"
          }
        ],
        "numberOfBytes": "64"
      },
      "t_struct(Set)632_storage": {
        "encoding": "inplace",
        "label": "struct EnumerableSet.Set",
        "members": [
          {
            "astId": 627,
            "contract": "solidity/contracts/HarvestV2Keep3rStealthJob.sol:HarvestV2Keep3rStealthJob",
            "label": "_values",
            "offset": 0,
            "slot": "0",
            "type": "t_array(t_bytes32)dyn_storage"
          },
          {
            "astId": 631,
            "contract": "solidity/contracts/HarvestV2Keep3rStealthJob.sol:HarvestV2Keep3rStealthJob",
            "label": "_indexes",
            "offset": 0,
            "slot": "1",
            "type": "t_mapping(t_bytes32,t_uint256)"
          }
        ],
        "numberOfBytes": "64"
      },
      "t_uint256": {
        "encoding": "inplace",
        "label": "uint256",
        "numberOfBytes": "32"
      }
    }
  }
}