{
  "address": "0xcD7f72F12c4b87dAbd31d3aa478A1381150c32b3",
  "abi": [
    {
      "inputs": [
        {
          "internalType": "address",
          "name": "_governor",
          "type": "address"
        },
        {
          "internalType": "address",
          "name": "_mechanicsRegistry",
          "type": "address"
        },
        {
          "internalType": "address",
          "name": "_v2Keeper",
          "type": "address"
        },
        {
          "internalType": "uint256",
          "name": "_workCooldown",
          "type": "uint256"
        },
        {
          "internalType": "address",
          "name": "_keep3r",
          "type": "address"
        },
        {
          "internalType": "address",
          "name": "_keep3rHelper",
          "type": "address"
        },
        {
          "internalType": "address",
          "name": "_bond",
          "type": "address"
        },
        {
          "internalType": "uint256",
          "name": "_minBond",
          "type": "uint256"
        },
        {
          "internalType": "uint256",
          "name": "_earned",
          "type": "uint256"
        },
        {
          "internalType": "uint256",
          "name": "_age",
          "type": "uint256"
        },
        {
          "internalType": "bool",
          "name": "_onlyEOA",
          "type": "bool"
        }
      ],
      "stateMutability": "nonpayable",
      "type": "constructor"
    },
    {
      "inputs": [],
      "name": "KeeperNotValid",
      "type": "error"
    },
    {
      "inputs": [],
      "name": "MaxMultiplier",
      "type": "error"
    },
    {
      "inputs": [],
      "name": "NoChangeInPause",
      "type": "error"
    },
    {
      "inputs": [],
      "name": "OnlyEOA",
      "type": "error"
    },
    {
      "inputs": [],
      "name": "OnlyGovernor",
      "type": "error"
    },
    {
      "inputs": [],
      "name": "OnlyGovernorOrMechanic",
      "type": "error"
    },
    {
      "inputs": [],
      "name": "OnlyPendingGovernor",
      "type": "error"
    },
    {
      "inputs": [],
      "name": "Paused",
      "type": "error"
    },
    {
      "inputs": [],
      "name": "StrategyAlreadyAdded",
      "type": "error"
    },
    {
      "inputs": [],
      "name": "StrategyNotAdded",
      "type": "error"
    },
    {
      "inputs": [],
      "name": "StrategyNotWorkable",
      "type": "error"
    },
    {
      "inputs": [],
      "name": "WrongLengths",
      "type": "error"
    },
    {
      "inputs": [],
      "name": "ZeroAddress",
      "type": "error"
    },
    {
      "inputs": [],
      "name": "ZeroCooldown",
      "type": "error"
    },
    {
      "anonymous": false,
      "inputs": [
        {
          "indexed": false,
          "internalType": "address",
          "name": "_strategy",
          "type": "address"
        }
      ],
      "name": "ForceWorked",
      "type": "event"
    },
    {
      "anonymous": false,
      "inputs": [
        {
          "indexed": false,
          "internalType": "uint256",
          "name": "_gasBonus",
          "type": "uint256"
        }
      ],
      "name": "GasBonusSet",
      "type": "event"
    },
    {
      "anonymous": false,
      "inputs": [
        {
          "indexed": false,
          "internalType": "uint256",
          "name": "_initialGas",
          "type": "uint256"
        },
        {
          "indexed": false,
          "internalType": "uint256",
          "name": "_gasAfterWork",
          "type": "uint256"
        },
        {
          "indexed": false,
          "internalType": "uint256",
          "name": "_bonus",
          "type": "uint256"
        }
      ],
      "name": "GasMetered",
      "type": "event"
    },
    {
      "anonymous": false,
      "inputs": [
        {
          "indexed": false,
          "internalType": "uint256",
          "name": "_gasMultiplier",
          "type": "uint256"
        }
      ],
      "name": "GasMultiplierSet",
      "type": "event"
    },
    {
      "anonymous": false,
      "inputs": [
        {
          "indexed": false,
          "internalType": "address",
          "name": "_keep3rHelper",
          "type": "address"
        }
      ],
      "name": "Keep3rHelperSet",
      "type": "event"
    },
    {
      "anonymous": false,
      "inputs": [
        {
          "indexed": false,
          "internalType": "address",
          "name": "_bond",
          "type": "address"
        },
        {
          "indexed": false,
          "internalType": "uint256",
          "name": "_minBond",
          "type": "uint256"
        },
        {
          "indexed": false,
          "internalType": "uint256",
          "name": "_earned",
          "type": "uint256"
        },
        {
          "indexed": false,
          "internalType": "uint256",
          "name": "_age",
          "type": "uint256"
        }
      ],
      "name": "Keep3rRequirementsSet",
      "type": "event"
    },
    {
      "anonymous": false,
      "inputs": [
        {
          "indexed": false,
          "internalType": "address",
          "name": "_keep3r",
          "type": "address"
        }
      ],
      "name": "Keep3rSet",
      "type": "event"
    },
    {
      "anonymous": false,
      "inputs": [
        {
          "indexed": false,
          "internalType": "address",
          "name": "_strategy",
          "type": "address"
        }
      ],
      "name": "KeeperWorked",
      "type": "event"
    },
    {
      "anonymous": false,
      "inputs": [
        {
          "indexed": false,
          "internalType": "uint256",
          "name": "_maxMultiplier",
          "type": "uint256"
        }
      ],
      "name": "MaxMultiplierSet",
      "type": "event"
    },
    {
      "anonymous": false,
      "inputs": [
        {
          "indexed": false,
          "internalType": "bool",
          "name": "_onlyEOA",
          "type": "bool"
        }
      ],
      "name": "OnlyEOASet",
      "type": "event"
    },
    {
      "anonymous": false,
      "inputs": [
        {
          "indexed": false,
          "internalType": "bool",
          "name": "_paused",
          "type": "bool"
        }
      ],
      "name": "PauseSet",
      "type": "event"
    },
    {
      "anonymous": false,
      "inputs": [
        {
          "indexed": false,
          "internalType": "address",
          "name": "_newGovernor",
          "type": "address"
        }
      ],
      "name": "PendingGovernorAccepted",
      "type": "event"
    },
    {
      "anonymous": false,
      "inputs": [
        {
          "indexed": false,
          "internalType": "address",
          "name": "_governor",
          "type": "address"
        },
        {
          "indexed": false,
          "internalType": "address",
          "name": "_pendingGovernor",
          "type": "address"
        }
      ],
      "name": "PendingGovernorSet",
      "type": "event"
    },
    {
      "anonymous": false,
      "inputs": [
        {
          "indexed": false,
          "internalType": "address",
          "name": "_strategy",
          "type": "address"
        },
        {
          "indexed": false,
          "internalType": "uint256",
          "name": "_requiredAmount",
          "type": "uint256"
        }
      ],
      "name": "StrategyAdded",
      "type": "event"
    },
    {
      "anonymous": false,
      "inputs": [
        {
          "indexed": false,
          "internalType": "address",
          "name": "_strategy",
          "type": "address"
        },
        {
          "indexed": false,
          "internalType": "uint256",
          "name": "_requiredAmount",
          "type": "uint256"
        }
      ],
      "name": "StrategyModified",
      "type": "event"
    },
    {
      "anonymous": false,
      "inputs": [
        {
          "indexed": false,
          "internalType": "address",
          "name": "_strategy",
          "type": "address"
        }
      ],
      "name": "StrategyRemoved",
      "type": "event"
    },
    {
      "inputs": [],
      "name": "BASE",
      "outputs": [
        {
          "internalType": "uint32",
          "name": "",
          "type": "uint32"
        }
      ],
      "stateMutability": "view",
      "type": "function"
    },
    {
      "inputs": [],
      "name": "acceptPendingGovernor",
      "outputs": [],
      "stateMutability": "nonpayable",
      "type": "function"
    },
    {
      "inputs": [
        {
          "internalType": "address[]",
          "name": "_strategies",
          "type": "address[]"
        },
        {
          "internalType": "uint256[]",
          "name": "_requiredAmounts",
          "type": "uint256[]"
        }
      ],
      "name": "addStrategies",
      "outputs": [],
      "stateMutability": "nonpayable",
      "type": "function"
    },
    {
      "inputs": [
        {
          "internalType": "address",
          "name": "_strategy",
          "type": "address"
        },
        {
          "internalType": "uint256",
          "name": "_requiredAmount",
          "type": "uint256"
        }
      ],
      "name": "addStrategy",
      "outputs": [],
      "stateMutability": "nonpayable",
      "type": "function"
    },
    {
      "inputs": [
        {
          "internalType": "address",
          "name": "_strategy",
          "type": "address"
        }
      ],
      "name": "forceWork",
      "outputs": [],
      "stateMutability": "nonpayable",
      "type": "function"
    },
    {
      "inputs": [],
      "name": "gasBonus",
      "outputs": [
        {
          "internalType": "uint256",
          "name": "",
          "type": "uint256"
        }
      ],
      "stateMutability": "view",
      "type": "function"
    },
    {
      "inputs": [],
      "name": "gasMultiplier",
      "outputs": [
        {
          "internalType": "uint256",
          "name": "",
          "type": "uint256"
        }
      ],
      "stateMutability": "view",
      "type": "function"
    },
    {
      "inputs": [],
      "name": "governor",
      "outputs": [
        {
          "internalType": "address",
          "name": "",
          "type": "address"
        }
      ],
      "stateMutability": "view",
      "type": "function"
    },
    {
      "inputs": [
        {
          "internalType": "address",
          "name": "_mechanic",
          "type": "address"
        }
      ],
      "name": "isMechanic",
      "outputs": [
        {
          "internalType": "bool",
          "name": "_isMechanic",
          "type": "bool"
        }
      ],
      "stateMutability": "view",
      "type": "function"
    },
    {
      "inputs": [],
      "name": "keep3r",
      "outputs": [
        {
          "internalType": "address",
          "name": "",
          "type": "address"
        }
      ],
      "stateMutability": "view",
      "type": "function"
    },
    {
      "inputs": [],
      "name": "keep3rHelper",
      "outputs": [
        {
          "internalType": "address",
          "name": "",
          "type": "address"
        }
      ],
      "stateMutability": "view",
      "type": "function"
    },
    {
      "inputs": [
        {
          "internalType": "address",
          "name": "",
          "type": "address"
        }
      ],
      "name": "lastWorkAt",
      "outputs": [
        {
          "internalType": "uint256",
          "name": "",
          "type": "uint256"
        }
      ],
      "stateMutability": "view",
      "type": "function"
    },
    {
      "inputs": [],
      "name": "maxMultiplier",
      "outputs": [
        {
          "internalType": "uint256",
          "name": "",
          "type": "uint256"
        }
      ],
      "stateMutability": "view",
      "type": "function"
    },
    {
      "inputs": [],
      "name": "mechanicsRegistry",
      "outputs": [
        {
          "internalType": "address",
          "name": "_mechanicRegistry",
          "type": "address"
        }
      ],
      "stateMutability": "view",
      "type": "function"
    },
    {
      "inputs": [],
      "name": "onlyEOA",
      "outputs": [
        {
          "internalType": "bool",
          "name": "",
          "type": "bool"
        }
      ],
      "stateMutability": "view",
      "type": "function"
    },
    {
      "inputs": [],
      "name": "paused",
      "outputs": [
        {
          "internalType": "bool",
          "name": "",
          "type": "bool"
        }
      ],
      "stateMutability": "view",
      "type": "function"
    },
    {
      "inputs": [],
      "name": "pendingGovernor",
      "outputs": [
        {
          "internalType": "address",
          "name": "",
          "type": "address"
        }
      ],
      "stateMutability": "view",
      "type": "function"
    },
    {
      "inputs": [
        {
          "internalType": "address",
          "name": "_strategy",
          "type": "address"
        }
      ],
      "name": "removeStrategy",
      "outputs": [],
      "stateMutability": "nonpayable",
      "type": "function"
    },
    {
      "inputs": [],
      "name": "requiredAge",
      "outputs": [
        {
          "internalType": "uint256",
          "name": "",
          "type": "uint256"
        }
      ],
      "stateMutability": "view",
      "type": "function"
    },
    {
      "inputs": [
        {
          "internalType": "address",
          "name": "",
          "type": "address"
        }
      ],
      "name": "requiredAmount",
      "outputs": [
        {
          "internalType": "uint256",
          "name": "",
          "type": "uint256"
        }
      ],
      "stateMutability": "view",
      "type": "function"
    },
    {
      "inputs": [],
      "name": "requiredBond",
      "outputs": [
        {
          "internalType": "address",
          "name": "",
          "type": "address"
        }
      ],
      "stateMutability": "view",
      "type": "function"
    },
    {
      "inputs": [],
      "name": "requiredEarnings",
      "outputs": [
        {
          "internalType": "uint256",
          "name": "",
          "type": "uint256"
        }
      ],
      "stateMutability": "view",
      "type": "function"
    },
    {
      "inputs": [],
      "name": "requiredMinBond",
      "outputs": [
        {
          "internalType": "uint256",
          "name": "",
          "type": "uint256"
        }
      ],
      "stateMutability": "view",
      "type": "function"
    },
    {
      "inputs": [
        {
          "internalType": "uint256",
          "name": "_gasBonus",
          "type": "uint256"
        }
      ],
      "name": "setGasBonus",
      "outputs": [],
      "stateMutability": "nonpayable",
      "type": "function"
    },
    {
      "inputs": [
        {
          "internalType": "uint256",
          "name": "_gasMultiplier",
          "type": "uint256"
        }
      ],
      "name": "setGasMultiplier",
      "outputs": [],
      "stateMutability": "nonpayable",
      "type": "function"
    },
    {
      "inputs": [
        {
          "internalType": "address",
          "name": "_keep3r",
          "type": "address"
        }
      ],
      "name": "setKeep3r",
      "outputs": [],
      "stateMutability": "nonpayable",
      "type": "function"
    },
    {
      "inputs": [
        {
          "internalType": "address",
          "name": "_keep3rHelper",
          "type": "address"
        }
      ],
      "name": "setKeep3rHelper",
      "outputs": [],
      "stateMutability": "nonpayable",
      "type": "function"
    },
    {
      "inputs": [
        {
          "internalType": "address",
          "name": "_bond",
          "type": "address"
        },
        {
          "internalType": "uint256",
          "name": "_minBond",
          "type": "uint256"
        },
        {
          "internalType": "uint256",
          "name": "_earned",
          "type": "uint256"
        },
        {
          "internalType": "uint256",
          "name": "_age",
          "type": "uint256"
        }
      ],
      "name": "setKeep3rRequirements",
      "outputs": [],
      "stateMutability": "nonpayable",
      "type": "function"
    },
    {
      "inputs": [
        {
          "internalType": "uint256",
          "name": "_maxMultiplier",
          "type": "uint256"
        }
      ],
      "name": "setMaxMultiplier",
      "outputs": [],
      "stateMutability": "nonpayable",
      "type": "function"
    },
    {
      "inputs": [
        {
          "internalType": "address",
          "name": "_mechanicsRegistry",
          "type": "address"
        }
      ],
      "name": "setMechanicsRegistry",
      "outputs": [],
      "stateMutability": "nonpayable",
      "type": "function"
    },
    {
      "inputs": [
        {
          "internalType": "bool",
          "name": "_onlyEOA",
          "type": "bool"
        }
      ],
      "name": "setOnlyEOA",
      "outputs": [],
      "stateMutability": "nonpayable",
      "type": "function"
    },
    {
      "inputs": [
        {
          "internalType": "bool",
          "name": "_paused",
          "type": "bool"
        }
      ],
      "name": "setPause",
      "outputs": [],
      "stateMutability": "nonpayable",
      "type": "function"
    },
    {
      "inputs": [
        {
          "internalType": "address",
          "name": "_pendingGovernor",
          "type": "address"
        }
      ],
      "name": "setPendingGovernor",
      "outputs": [],
      "stateMutability": "nonpayable",
      "type": "function"
    },
    {
      "inputs": [
        {
          "internalType": "address",
          "name": "_v2Keeper",
          "type": "address"
        }
      ],
      "name": "setV2Keeper",
      "outputs": [],
      "stateMutability": "nonpayable",
      "type": "function"
    },
    {
      "inputs": [
        {
          "internalType": "uint256",
          "name": "_workCooldown",
          "type": "uint256"
        }
      ],
      "name": "setWorkCooldown",
      "outputs": [],
      "stateMutability": "nonpayable",
      "type": "function"
    },
    {
      "inputs": [],
      "name": "strategies",
      "outputs": [
        {
          "internalType": "address[]",
          "name": "_strategies",
          "type": "address[]"
        }
      ],
      "stateMutability": "view",
      "type": "function"
    },
    {
      "inputs": [
        {
          "internalType": "address",
          "name": "_strategy",
          "type": "address"
        },
        {
          "internalType": "uint256",
          "name": "_requiredAmount",
          "type": "uint256"
        }
      ],
      "name": "updateRequiredAmount",
      "outputs": [],
      "stateMutability": "nonpayable",
      "type": "function"
    },
    {
      "inputs": [
        {
          "internalType": "address[]",
          "name": "_strategies",
          "type": "address[]"
        },
        {
          "internalType": "uint256[]",
          "name": "_requiredAmounts",
          "type": "uint256[]"
        }
      ],
      "name": "updateRequiredAmounts",
      "outputs": [],
      "stateMutability": "nonpayable",
      "type": "function"
    },
    {
      "inputs": [],
      "name": "v2Keeper",
      "outputs": [
        {
          "internalType": "contract IV2Keeper",
          "name": "",
          "type": "address"
        }
      ],
      "stateMutability": "view",
      "type": "function"
    },
    {
      "inputs": [
        {
          "internalType": "address",
          "name": "_strategy",
          "type": "address"
        }
      ],
      "name": "work",
      "outputs": [],
      "stateMutability": "nonpayable",
      "type": "function"
    },
    {
      "inputs": [],
      "name": "workCooldown",
      "outputs": [
        {
          "internalType": "uint256",
          "name": "",
          "type": "uint256"
        }
      ],
      "stateMutability": "view",
      "type": "function"
    },
    {
      "inputs": [
        {
          "internalType": "address",
          "name": "_strategy",
          "type": "address"
        }
      ],
      "name": "workable",
      "outputs": [
        {
          "internalType": "bool",
          "name": "_isWorkable",
          "type": "bool"
        }
      ],
      "stateMutability": "view",
      "type": "function"
    }
  ],
  "transactionHash": "0x40aca4242904d92f1c5a6defea82c5833b3fba62c01f08c918a8b0cf4fce58e0",
  "args": [
    "0x2c01b4ad51a67e2d8f02208f54df9ac4c0b778b6",
    "0xe8d5a85758fe98f7dce251cad552691d49b499bb",
    "0x736d7e3c5a6cb2ce3b764300140abf476f6cfccf",
    300,
    "0xeb02addCfD8B773A5FFA6B9d1FE99c566f8c44CC",
    "0xD36Ac9Ff5562abb541F51345f340FB650547a661",
    "0x1cEB5cB57C4D4E2b2433641b95Dd330A33185A44",
    "50000000000000000000",
    0,
    0,
    true
  ],
  "numDeployments": 1,
  "solcInputHash": "5c49320b5df49a8a307c86afb4f87e1c",
  "bytecode": "0x60806040526009805474eb02addcfd8b773a5ffa6b9d1fe99c566f8c44cc00610100600160a81b0319909116179055600a80546001600160a01b031990811673d36ac9ff5562abb541f51345f340fb650547a6611790915562014ff0600b55612ee0600c55613a98600d55600e8054909116731ceb5cb57c4d4e2b2433641b95dd330a33185a441790556802b5e3af16b1880000600f55348015620000a357600080fd5b5060405162001e5338038062001e53833981016040819052620000c69162000347565b600080546001600160a01b0319166001600160a01b038c161790558a898b8a81846001600160a01b0381166200010f5760405163d92e233d60e01b815260040160405180910390fd5b600180546001600160a01b03199081166001600160a01b039384161790915560038054909116918616919091179055508015620001515762000151816200019b565b505050506200016687620001c260201b60201c565b62000171866200021f565b6200017f858585856200026e565b6200018a81620002e8565b50505050505050505050506200040e565b80600003620001bd57604051636972b64d60e01b815260040160405180910390fd5b600855565b60098054610100600160a81b0319166101006001600160a01b038416908102919091179091556040519081527f0fec338132ef1fa68cd11242357e5e5e5af67dfd0c957b53ef411bca535817ef906020015b60405180910390a150565b600a80546001600160a01b0319166001600160a01b0383169081179091556040519081527f77e14ebc8982ca2b21d8410b77a6ca8a857864dfab5d337f154fbacea73c11919060200162000214565b600e80546001600160a01b0319166001600160a01b038616908117909155600f8490556010839055601182905560408051918252602082018590528101839052606081018290527fadc260414d0381ec9727c6f819aa0ebe789ad81016c176765f40d3bc301e5d6b9060800160405180910390a150505050565b6012805460ff19168215159081179091556040519081527fa9bf0ee725a8887f07a03c36e33aa100bb0218d44b9fff855be8504c480ab99b9060200162000214565b80516001600160a01b03811681146200034257600080fd5b919050565b60008060008060008060008060008060006101608c8e0312156200036a57600080fd5b620003758c6200032a565b9a506200038560208d016200032a565b99506200039560408d016200032a565b985060608c01519750620003ac60808d016200032a565b9650620003bc60a08d016200032a565b9550620003cc60c08d016200032a565b945060e08c015193506101008c015192506101208c015191506101408c01518015158114620003fa57600080fd5b809150509295989b509295989b9093969950565b611a35806200041e6000396000f3fe608060405234801561001057600080fd5b506004361061025e5760003560e01c806372da828a11610146578063d9f9027f116100c3578063ec342ad011610087578063ec342ad014610514578063ef47da6d14610532578063f11a1d1a14610545578063f235757f14610558578063fb2a410a1461056b578063fbea57091461057857600080fd5b8063d9f9027f146104c7578063dd7ba420146104dc578063e06a7cb9146104ef578063e3056a34146104f8578063ea3c2b9c1461050b57600080fd5b806392b3b2651161010a57806392b3b265146104685780639f4713031461047b578063b9a52e281461048e578063bedb86fb146104a1578063c9411e22146104b457600080fd5b806372da828a1461041357806373da47c81461042657806374c2ca831461042f578063780b5c231461044257806390f296431461045557600080fd5b806326e6cd26116101df5780635905b407116101a35780635905b407146103a65780635c975abb146103b957806362ba54a9146103d6578063634c7bb5146103df57806365834acc146103f75780636b1b6e3e1461040a57600080fd5b806326e6cd261461033a57806328584aa71461034d57806336df7ea51461036d5780633ff8bbf6146103805780634cc18e571461039357600080fd5b806313f6986d1161022657806313f6986d146102f057806314f29a1d146102f857806316ea58da1461030b578063175188e81461031457806325fc3b221461032757600080fd5b806301526a43146102635780630187aea0146102785780630c340a241461029457806310262803146102bf5780631078f388146102df575b600080fd5b610276610271366004611705565b61058b565b005b610281600d5481565b6040519081526020015b60405180910390f35b6001546102a7906001600160a01b031681565b6040516001600160a01b03909116815260200161028b565b6102816102cd36600461173a565b60076020526000908152604090205481565b6000546001600160a01b03166102a7565b6102766105c2565b610276610306366004611705565b6105f7565b610281600b5481565b61027661032236600461173a565b61062b565b6102766103353660046117a1565b61063d565b61027661034836600461173a565b6106d2565b61028161035b36600461173a565b60066020526000908152604090205481565b61027661037b36600461173a565b61071b565b600e546102a7906001600160a01b031681565b6102766103a136600461173a565b6108c6565b6102766103b436600461180d565b6108fa565b6009546103c69060ff1681565b604051901515815260200161028b565b61028160105481565b6009546102a79061010090046001600160a01b031681565b6103c661040536600461173a565b610937565b61028160115481565b61027661042136600461173a565b6109ad565b610281600f5481565b61027661043d366004611705565b6109e1565b610276610450366004611854565b6109f3565b610276610463366004611705565b610a27565b6003546102a7906001600160a01b031681565b6103c661048936600461173a565b610a5b565b61027661049c366004611871565b610a66565b6102766104af366004611854565b610a7d565b6102766104c2366004611871565b610ab1565b6104cf610ac4565b60405161028b919061189b565b6102766104ea36600461173a565b610b73565b61028160085481565b6002546102a7906001600160a01b031681565b610281600c5481565b61051d61271081565b60405163ffffffff909116815260200161028b565b61027661054036600461173a565b610b85565b600a546102a7906001600160a01b031681565b61027661056636600461173a565b610bce565b6012546103c69060ff1681565b6102766105863660046117a1565b610c02565b6001546001600160a01b031633146105b65760405163070545c960e51b815260040160405180910390fd5b6105bf81610c90565b50565b6002546001600160a01b031633146105ed57604051639ba0305d60e01b815260040160405180910390fd5b6105f5610ccc565b565b6001546001600160a01b031633146106225760405163070545c960e51b815260040160405180910390fd5b6105bf81610d2a565b61063433610d82565b6105bf81610dc4565b61064633610d82565b828114610666576040516381e4d28d60e01b815260040160405180910390fd5b60005b838110156106cb576106b9858583818110610686576106866118e8565b905060200201602081019061069b919061173a565b8484848181106106ad576106ad6118e8565b90506020020135610e4a565b806106c381611914565b915050610669565b5050505050565b6001546001600160a01b031633146106fd5760405163070545c960e51b815260040160405180910390fd5b600380546001600160a01b0319166001600160a01b03831617905550565b60005a905061072933610ee0565b60095460ff161561074d576040516313d0ff5960e31b815260040160405180910390fd5b61075682610efd565b60005a9050600061271063ffffffff16600c5461078a600b54858761077b919061192d565b6107859190611944565b610f80565b610794919061195c565b61079e919061197b565b600a54604051633b46f5db60e21b8152600481018390529192506000916001600160a01b039091169063ed1bd76c90602401602060405180830381865afa1580156107ed573d6000803e3d6000fd5b505050506040513d601f19601f82011682018060405250810190610811919061199d565b6009546040516308a336b960e11b81523360048201526024810183905291925061010090046001600160a01b0316906311466d7290604401600060405180830381600087803b15801561086357600080fd5b505af1158015610877573d6000803e3d6000fd5b5050600b54604080518881526020810188905280820192909252517f5b3acbf5cbe55940e1bd9235bb985ccca97e9028d7489290f08e6504e76b88d39350908190036060019150a15050505050565b6001546001600160a01b031633146108f15760405163070545c960e51b815260040160405180910390fd5b6105bf81610f8c565b6001546001600160a01b031633146109255760405163070545c960e51b815260040160405180910390fd5b61093184848484610fe2565b50505050565b60008054604051631960d2b360e21b81526001600160a01b038481166004830152909116906365834acc906024015b602060405180830381865afa158015610983573d6000803e3d6000fd5b505050506040513d601f19601f820116820180604052508101906109a791906119b6565b92915050565b6001546001600160a01b031633146109d85760405163070545c960e51b815260040160405180910390fd5b6105bf8161105c565b6109ea33610d82565b6105bf816110aa565b6001546001600160a01b03163314610a1e5760405163070545c960e51b815260040160405180910390fd5b6105bf816110d0565b6001546001600160a01b03163314610a525760405163070545c960e51b815260040160405180910390fd5b6105bf81611111565b60006109a782611146565b610a6f33610d82565b610a798282611193565b5050565b6001546001600160a01b03163314610aa85760405163070545c960e51b815260040160405180910390fd5b6105bf8161121c565b610aba33610d82565b610a798282610e4a565b6060610ad06004611288565b67ffffffffffffffff811115610ae857610ae86119d3565b604051908082528060200260200182016040528015610b11578160200160208202803683370190505b50905060005b610b216004611288565b811015610b6f57610b33600482611292565b828281518110610b4557610b456118e8565b6001600160a01b039092166020928302919091019091015280610b6781611914565b915050610b17565b5090565b610b7c33610d82565b6105bf816112a5565b6001546001600160a01b03163314610bb05760405163070545c960e51b815260040160405180910390fd5b600080546001600160a01b0319166001600160a01b03831617905550565b6001546001600160a01b03163314610bf95760405163070545c960e51b815260040160405180910390fd5b6105bf816112e7565b610c0b33610d82565b828114610c2b576040516381e4d28d60e01b815260040160405180910390fd5b60005b838110156106cb57610c7e858583818110610c4b57610c4b6118e8565b9050602002016020810190610c60919061173a565b848484818110610c7257610c726118e8565b90506020020135611193565b80610c8881611914565b915050610c2e565b600d8190556040518181527fad852bc3e1d8ed93d9b2d9290bdb1d945c12994fd7b826f5ff91ec56245aefda906020015b60405180910390a150565b60028054600180546001600160a01b0383166001600160a01b031991821681179092559091169091556040519081527f5d5d6e01b731c3e68060f7fe13156f6197d4aeffc2d6f498e34c717ae616b7349060200160405180910390a1565b600d54811115610d4d5760405163cd9ba70160e01b815260040160405180910390fd5b600c8190556040518181527f2985ceccbff6f8695faca980a17eb9a590d2f080d024f944d3c7743ba038c39990602001610cc1565b6001546001600160a01b03828116911614801590610da65750610da481610937565b155b156105bf576040516306a22f2960e01b815260040160405180910390fd5b610dcf60048261136a565b610dec57604051638716f5eb60e01b815260040160405180910390fd5b6001600160a01b038116600090815260066020526040812055610e1060048261138c565b506040516001600160a01b03821681527f09a1db4b80c32706328728508c941a6b954f31eb5affd32f236c1fd405f8fea490602001610cc1565b610e5560048361136a565b15610e735760405163165e236760e01b815260040160405180910390fd5b6001600160a01b0382166000908152600660205260409020819055604080516001600160a01b0384168152602081018390527f2f564a83158ad1831793ad3e69257b52f39ece5d49cb0d8746708ecb9ef964da910160405180910390a1610edb6004836113a1565b505050565b60125460ff1615610ef457610ef4816113b6565b6105bf816113df565b610f0681611146565b610f23576040516398ae0b2160e01b815260040160405180910390fd5b6001600160a01b0381166000908152600760205260409020429055610f4781611499565b6040516001600160a01b03821681527fac848b4596fbd35b139e8ee158748a1c8091becf3e830c628b4a79ad869d170290602001610cc1565b60006109a7824861195c565b60098054610100600160a81b0319166101006001600160a01b038416908102919091179091556040519081527f0fec338132ef1fa68cd11242357e5e5e5af67dfd0c957b53ef411bca535817ef90602001610cc1565b600e80546001600160a01b0319166001600160a01b038616908117909155600f8490556010839055601182905560408051918252602082018590528101839052606081018290527fadc260414d0381ec9727c6f819aa0ebe789ad81016c176765f40d3bc301e5d6b9060800160405180910390a150505050565b600a80546001600160a01b0319166001600160a01b0383169081179091556040519081527f77e14ebc8982ca2b21d8410b77a6ca8a857864dfab5d337f154fbacea73c119190602001610cc1565b806000036110cb57604051636972b64d60e01b815260040160405180910390fd5b600855565b6012805460ff19168215159081179091556040519081527fa9bf0ee725a8887f07a03c36e33aa100bb0218d44b9fff855be8504c480ab99b90602001610cc1565b600b8190556040518181527f6c434ba0e7a3588c2330d8f479f247d9269f069a8d630dbb2cb60a7382a487f090602001610cc1565b6000611151826114f4565b61115d57506000919050565b816001600160a01b031663650d188061117584611566565b6040518263ffffffff1660e01b815260040161096691815260200190565b61119e60048361136a565b6111bb57604051638716f5eb60e01b815260040160405180910390fd5b6001600160a01b0382166000908152600660205260409020819055604080516001600160a01b0384168152602081018390527fe4471c38177bd412e0358beccddbe74bad9465520f4f24a76c013bd404b0b0de910160405180910390a15050565b60095481151560ff909116151503611247576040516337fe120d60e21b815260040160405180910390fd5b6009805460ff19168215159081179091556040519081527f878ac8a2ca79520471f8f3c8494fa802c03ce3bf034252aad7f22318984fdbdb90602001610cc1565b60006109a7825490565b600061129e8383611599565b9392505050565b6112ae81611499565b6040516001600160a01b03821681527fee8d688761ac1d0fda49e2ac999f0e46b3beaf16857a8e8905aeab2987dc8d3890602001610cc1565b6001600160a01b03811661130e5760405163d92e233d60e01b815260040160405180910390fd5b600280546001600160a01b0319166001600160a01b038381169182179092556001546040805191909316815260208101919091527f6353ec38ac394f8be94bfafcdd3580d356470599059eaeebedc3207e1cc03dec9101610cc1565b6001600160a01b0381166000908152600183016020526040812054151561129e565b600061129e836001600160a01b0384166115c3565b600061129e836001600160a01b0384166116b6565b6001600160a01b03811632146105bf57604051639f8129d160e01b815260040160405180910390fd5b600954600e54600f54601054601154604051637cea367960e11b81526001600160a01b0387811660048301529485166024820152604481019390935260648301919091526084820152610100909204169063f9d46cf29060a4016020604051808303816000875af1158015611458573d6000803e3d6000fd5b505050506040513d601f19601f8201168201806040525081019061147c91906119b6565b6105bf57604051636959565560e11b815260040160405180910390fd5b60035460405163d6d2dcf960e01b81526001600160a01b0383811660048301529091169063d6d2dcf990602401600060405180830381600087803b1580156114e057600080fd5b505af11580156106cb573d6000803e3d6000fd5b600061150160048361136a565b61151e57604051638716f5eb60e01b815260040160405180910390fd5b600854158061155157506008546001600160a01b03831660009081526007602052604090205461154e9190611944565b42115b1561155e57506001919050565b506000919050565b6001600160a01b03811660009081526006602052604081205480820361158f5750600092915050565b61129e488261195c565b60008260000182815481106115b0576115b06118e8565b9060005260206000200154905092915050565b600081815260018301602052604081205480156116ac5760006115e760018361192d565b85549091506000906115fb9060019061192d565b905081811461166057600086600001828154811061161b5761161b6118e8565b906000526020600020015490508087600001848154811061163e5761163e6118e8565b6000918252602080832090910192909255918252600188019052604090208390555b8554869080611671576116716119e9565b6001900381819060005260206000200160009055905585600101600086815260200190815260200160002060009055600193505050506109a7565b60009150506109a7565b60008181526001830160205260408120546116fd575081546001818101845560008481526020808220909301849055845484825282860190935260409020919091556109a7565b5060006109a7565b60006020828403121561171757600080fd5b5035919050565b80356001600160a01b038116811461173557600080fd5b919050565b60006020828403121561174c57600080fd5b61129e8261171e565b60008083601f84011261176757600080fd5b50813567ffffffffffffffff81111561177f57600080fd5b6020830191508360208260051b850101111561179a57600080fd5b9250929050565b600080600080604085870312156117b757600080fd5b843567ffffffffffffffff808211156117cf57600080fd5b6117db88838901611755565b909650945060208701359150808211156117f457600080fd5b5061180187828801611755565b95989497509550505050565b6000806000806080858703121561182357600080fd5b61182c8561171e565b966020860135965060408601359560600135945092505050565b80151581146105bf57600080fd5b60006020828403121561186657600080fd5b813561129e81611846565b6000806040838503121561188457600080fd5b61188d8361171e565b946020939093013593505050565b6020808252825182820181905260009190848201906040850190845b818110156118dc5783516001600160a01b0316835292840192918401916001016118b7565b50909695505050505050565b634e487b7160e01b600052603260045260246000fd5b634e487b7160e01b600052601160045260246000fd5b600060018201611926576119266118fe565b5060010190565b60008282101561193f5761193f6118fe565b500390565b60008219821115611957576119576118fe565b500190565b6000816000190483118215151615611976576119766118fe565b500290565b60008261199857634e487b7160e01b600052601260045260246000fd5b500490565b6000602082840312156119af57600080fd5b5051919050565b6000602082840312156119c857600080fd5b815161129e81611846565b634e487b7160e01b600052604160045260246000fd5b634e487b7160e01b600052603160045260246000fdfea2646970667358221220b429647db0fefae6ece436dad772253058c37f466309c3275b83872515d846ac64736f6c634300080f0033",
  "devdoc": {
    "kind": "dev",
    "methods": {
      "addStrategies(address[],uint256[])": {
        "params": {
          "_requiredAmount": "Array of amount of gas that each strategy requires to execute",
          "_strategies": "Array of addresses of strategies to add"
        }
      },
      "addStrategy(address,uint256)": {
        "params": {
          "_requiredAmount": "Amount of gas that the strategy requires to execute",
          "_strategy": "Address of the strategy to add"
        }
      },
      "forceWork(address)": {
        "params": {
          "_strategy": "Address of the strategy to be worked"
        }
      },
      "removeStrategy(address)": {
        "params": {
          "_strategy": "Address of the strategy to remove"
        }
      },
      "setGasBonus(uint256)": {
        "params": {
          "_gasBonus": "New amount of gas to add to cover unaccounted gas"
        }
      },
      "setGasMultiplier(uint256)": {
        "params": {
          "_gasMultiplier": "New multiplier that boosts gas record to calculate the keeper reward"
        }
      },
      "setKeep3r(address)": {
        "params": {
          "_keep3r": "Address of the new Keep3r contract"
        }
      },
      "setKeep3rHelper(address)": {
        "params": {
          "_keep3rHelper": "Address of the new Keep3rHelper contract"
        }
      },
      "setKeep3rRequirements(address,uint256,uint256,uint256)": {
        "params": {
          "_age": "Amount of seconds since keeper registration required to work the job",
          "_bond": "Address of the token required to bond to work the job",
          "_earned": "Amount of KP3R earnings required to work the job",
          "_minBond": "Amount of tokens required to bond to work the job"
        }
      },
      "setMaxMultiplier(uint256)": {
        "params": {
          "_maxMultiplier": "New maximum acceptable gasMultiplier to be set"
        }
      },
      "setMechanicsRegistry(address)": {
        "params": {
          "_mechanicsRegistry": "Address of the new MechanicsRegistry contract"
        }
      },
      "setOnlyEOA(bool)": {
        "params": {
          "_onlyEOA": "Whether the keeper is required to be an EOA or not"
        }
      },
      "setPause(bool)": {
        "params": {
          "_paused": "Whether the contract should be paused or not"
        }
      },
      "setPendingGovernor(address)": {
        "params": {
          "_pendingGovernor": "Address of the proposed new governor"
        }
      },
      "setV2Keeper(address)": {
        "params": {
          "_v2Keeper": "Address of the new v2Keeper to set"
        }
      },
      "setWorkCooldown(uint256)": {
        "params": {
          "_workCooldown": "Amount of seconds to wait until a strategy can be worked again"
        }
      },
      "strategies()": {
        "returns": {
          "_strategies": "List of added strategies"
        }
      },
      "updateRequiredAmount(address,uint256)": {
        "params": {
          "_requiredAmount": "New amount of gas that te strategy requires to execute",
          "_strategy": "Address of the strategy to modify"
        }
      },
      "updateRequiredAmounts(address[],uint256[])": {
        "params": {
          "_requiredAmounts": "Array of new amounts of gas that each strategy requires to execute",
          "_strategies": "Array of addresses of strategies to modify"
        }
      },
      "work(address)": {
        "params": {
          "_strategy": "Address of the strategy to be worked"
        }
      },
      "workable(address)": {
        "params": {
          "_strategy": "Address of the strategy to query"
        },
        "returns": {
          "_isWorkable": "Whether the queried strategy is workable or not"
        }
      }
    },
    "version": 1
  },
  "userdoc": {
    "errors": {
      "KeeperNotValid()": [
        {
          "notice": "Throws when a keeper fails the validation"
        }
      ],
      "NoChangeInPause()": [
        {
          "notice": "Throws when governor tries to switch pause to the same state as before"
        }
      ],
      "OnlyEOA()": [
        {
          "notice": "Throws when keeper is not tx.origin"
        }
      ],
      "OnlyGovernor()": [
        {
          "notice": "Throws if a non-governor user tries to call a OnlyGovernor function"
        }
      ],
      "OnlyGovernorOrMechanic()": [
        {
          "notice": "Throws when a OnlyGovernorOrMechanic function is called from an unknown address"
        }
      ],
      "OnlyPendingGovernor()": [
        {
          "notice": "Throws if a non-pending-governor user tries to call a OnlyPendingGovernor function"
        }
      ],
      "Paused()": [
        {
          "notice": "Throws when a keeper tries to work a paused contract"
        }
      ],
      "StrategyAlreadyAdded()": [
        {
          "notice": "Throws if the strategy being added has already been added"
        }
      ],
      "StrategyNotAdded()": [
        {
          "notice": "Throws if the strategy being summoned is not added"
        }
      ],
      "StrategyNotWorkable()": [
        {
          "notice": "Throws if a keeper tries to work a non-workable strategy"
        }
      ],
      "WrongLengths()": [
        {
          "notice": "Throws if a set of correlated input param arrays differ in lengths"
        }
      ],
      "ZeroAddress()": [
        {
          "notice": "Throws if a variable is assigned to the zero address"
        }
      ],
      "ZeroCooldown()": [
        {
          "notice": "Throws if the cooldown is being set to 0"
        }
      ]
    },
    "events": {
      "ForceWorked(address)": {
        "notice": "Emitted when a strategy is force-worked by governor or mechanic"
      },
      "GasBonusSet(uint256)": {
        "notice": "Emitted when a new gas bonus amount is set"
      },
      "GasMetered(uint256,uint256,uint256)": {
        "notice": "Emitted when a metered job is worked"
      },
      "GasMultiplierSet(uint256)": {
        "notice": "Emitted when a new gas bonus multiplier is set"
      },
      "Keep3rHelperSet(address)": {
        "notice": "Emitted when a new Keep3rHelper contract is set"
      },
      "Keep3rRequirementsSet(address,uint256,uint256,uint256)": {
        "notice": "Emitted when a new set of requirements is set"
      },
      "Keep3rSet(address)": {
        "notice": "Emitted when a new Keep3r contract is set"
      },
      "KeeperWorked(address)": {
        "notice": "Emitted when a strategy is worked"
      },
      "MaxMultiplierSet(uint256)": {
        "notice": "Emitted when a new gas bonus multiplier maximum is set"
      },
      "OnlyEOASet(bool)": {
        "notice": "Emitted when onlyEOA is set"
      },
      "PauseSet(bool)": {
        "notice": "Emitted when the contract pause is switched"
      },
      "PendingGovernorAccepted(address)": {
        "notice": "Emitted when a new governor is set"
      },
      "PendingGovernorSet(address,address)": {
        "notice": "Emitted when a new pending governor is set"
      },
      "StrategyAdded(address,uint256)": {
        "notice": "Emitted when a new strategy is added"
      },
      "StrategyModified(address,uint256)": {
        "notice": "Emitted when a strategy is modified"
      },
      "StrategyRemoved(address)": {
        "notice": "Emitted when a strategy is removed"
      }
    },
    "kind": "user",
    "methods": {
      "acceptPendingGovernor()": {
        "notice": "Allows a proposed governor to accept the governance"
      },
      "forceWork(address)": {
        "notice": "Function to be called by governor or mechanics that triggers the execution of the given strategyThis function bypasses the workable checks"
      },
      "setGasBonus(uint256)": {
        "notice": "Allows governor to set a new gas bonus amount"
      },
      "setGasMultiplier(uint256)": {
        "notice": "Allows governor to set a new gas multiplier"
      },
      "setKeep3r(address)": {
        "notice": "Allows governor to set a new Keep3r contract"
      },
      "setKeep3rHelper(address)": {
        "notice": "Allows governor to set a new Keep3rHelper contract"
      },
      "setKeep3rRequirements(address,uint256,uint256,uint256)": {
        "notice": "Allows the governor to set new requirements to work the job"
      },
      "setMaxMultiplier(uint256)": {
        "notice": "Allows governor to set a new gas multiplier maximum"
      },
      "setMechanicsRegistry(address)": {
        "notice": "Allows governor to set a new MechanicsRegistry contract"
      },
      "setOnlyEOA(bool)": {
        "notice": "Allows governor to set the onlyEOA condition"
      },
      "setPause(bool)": {
        "notice": "Allows governor to pause or unpause the contract"
      },
      "setPendingGovernor(address)": {
        "notice": "Allows a governor to propose a new governor"
      },
      "work(address)": {
        "notice": "Function to be called by the keeper that triggers the execution of the given strategy"
      }
    },
    "version": 1
  },
  "storageLayout": {
    "storage": [
      {
        "astId": 1234,
        "contract": "solidity/contracts/TendV2Keep3rJob.sol:TendV2Keep3rJob",
        "label": "_mechanicsRegistry",
        "offset": 0,
        "slot": "0",
        "type": "t_contract(IMechanicsRegistry)1341"
      },
      {
        "astId": 2847,
        "contract": "solidity/contracts/TendV2Keep3rJob.sol:TendV2Keep3rJob",
        "label": "governor",
        "offset": 0,
        "slot": "1",
        "type": "t_address"
      },
      {
        "astId": 2850,
        "contract": "solidity/contracts/TendV2Keep3rJob.sol:TendV2Keep3rJob",
        "label": "pendingGovernor",
        "offset": 0,
        "slot": "2",
        "type": "t_address"
      },
      {
        "astId": 1718,
        "contract": "solidity/contracts/TendV2Keep3rJob.sol:TendV2Keep3rJob",
        "label": "v2Keeper",
        "offset": 0,
        "slot": "3",
        "type": "t_contract(IV2Keeper)6170"
      },
      {
        "astId": 1721,
        "contract": "solidity/contracts/TendV2Keep3rJob.sol:TendV2Keep3rJob",
        "label": "_availableStrategies",
        "offset": 0,
        "slot": "4",
        "type": "t_struct(AddressSet)933_storage"
      },
      {
        "astId": 1726,
        "contract": "solidity/contracts/TendV2Keep3rJob.sol:TendV2Keep3rJob",
        "label": "requiredAmount",
        "offset": 0,
        "slot": "6",
        "type": "t_mapping(t_address,t_uint256)"
      },
      {
        "astId": 1731,
        "contract": "solidity/contracts/TendV2Keep3rJob.sol:TendV2Keep3rJob",
        "label": "lastWorkAt",
        "offset": 0,
        "slot": "7",
        "type": "t_mapping(t_address,t_uint256)"
      },
      {
        "astId": 1734,
        "contract": "solidity/contracts/TendV2Keep3rJob.sol:TendV2Keep3rJob",
        "label": "workCooldown",
        "offset": 0,
        "slot": "8",
        "type": "t_uint256"
      },
      {
        "astId": 3701,
        "contract": "solidity/contracts/TendV2Keep3rJob.sol:TendV2Keep3rJob",
        "label": "paused",
        "offset": 0,
        "slot": "9",
        "type": "t_bool"
      },
      {
        "astId": 3077,
        "contract": "solidity/contracts/TendV2Keep3rJob.sol:TendV2Keep3rJob",
        "label": "keep3r",
        "offset": 1,
        "slot": "9",
        "type": "t_address"
      },
      {
        "astId": 3152,
        "contract": "solidity/contracts/TendV2Keep3rJob.sol:TendV2Keep3rJob",
        "label": "keep3rHelper",
        "offset": 0,
        "slot": "10",
        "type": "t_address"
      },
      {
        "astId": 3156,
        "contract": "solidity/contracts/TendV2Keep3rJob.sol:TendV2Keep3rJob",
        "label": "gasBonus",
        "offset": 0,
        "slot": "11",
        "type": "t_uint256"
      },
      {
        "astId": 3160,
        "contract": "solidity/contracts/TendV2Keep3rJob.sol:TendV2Keep3rJob",
        "label": "gasMultiplier",
        "offset": 0,
        "slot": "12",
        "type": "t_uint256"
      },
      {
        "astId": 3168,
        "contract": "solidity/contracts/TendV2Keep3rJob.sol:TendV2Keep3rJob",
        "label": "maxMultiplier",
        "offset": 0,
        "slot": "13",
        "type": "t_uint256"
      },
      {
        "astId": 2974,
        "contract": "solidity/contracts/TendV2Keep3rJob.sol:TendV2Keep3rJob",
        "label": "requiredBond",
        "offset": 0,
        "slot": "14",
        "type": "t_address"
      },
      {
        "astId": 2978,
        "contract": "solidity/contracts/TendV2Keep3rJob.sol:TendV2Keep3rJob",
        "label": "requiredMinBond",
        "offset": 0,
        "slot": "15",
        "type": "t_uint256"
      },
      {
        "astId": 2981,
        "contract": "solidity/contracts/TendV2Keep3rJob.sol:TendV2Keep3rJob",
        "label": "requiredEarnings",
        "offset": 0,
        "slot": "16",
        "type": "t_uint256"
      },
      {
        "astId": 2984,
        "contract": "solidity/contracts/TendV2Keep3rJob.sol:TendV2Keep3rJob",
        "label": "requiredAge",
        "offset": 0,
        "slot": "17",
        "type": "t_uint256"
      },
      {
        "astId": 3648,
        "contract": "solidity/contracts/TendV2Keep3rJob.sol:TendV2Keep3rJob",
        "label": "onlyEOA",
        "offset": 0,
        "slot": "18",
        "type": "t_bool"
      }
    ],
    "types": {
      "t_address": {
        "encoding": "inplace",
        "label": "address",
        "numberOfBytes": "20"
      },
      "t_array(t_bytes32)dyn_storage": {
        "base": "t_bytes32",
        "encoding": "dynamic_array",
        "label": "bytes32[]",
        "numberOfBytes": "32"
      },
      "t_bool": {
        "encoding": "inplace",
        "label": "bool",
        "numberOfBytes": "1"
      },
      "t_bytes32": {
        "encoding": "inplace",
        "label": "bytes32",
        "numberOfBytes": "32"
      },
      "t_contract(IMechanicsRegistry)1341": {
        "encoding": "inplace",
        "label": "contract IMechanicsRegistry",
        "numberOfBytes": "20"
      },
      "t_contract(IV2Keeper)6170": {
        "encoding": "inplace",
        "label": "contract IV2Keeper",
        "numberOfBytes": "20"
      },
      "t_mapping(t_address,t_uint256)": {
        "encoding": "mapping",
        "key": "t_address",
        "label": "mapping(address => uint256)",
        "numberOfBytes": "32",
        "value": "t_uint256"
      },
      "t_mapping(t_bytes32,t_uint256)": {
        "encoding": "mapping",
        "key": "t_bytes32",
        "label": "mapping(bytes32 => uint256)",
        "numberOfBytes": "32",
        "value": "t_uint256"
      },
      "t_struct(AddressSet)933_storage": {
        "encoding": "inplace",
        "label": "struct EnumerableSet.AddressSet",
        "members": [
          {
            "astId": 932,
            "contract": "solidity/contracts/TendV2Keep3rJob.sol:TendV2Keep3rJob",
            "label": "_inner",
            "offset": 0,
            "slot": "0",
            "type": "t_struct(Set)632_storage"
          }
        ],
        "numberOfBytes": "64"
      },
      "t_struct(Set)632_storage": {
        "encoding": "inplace",
        "label": "struct EnumerableSet.Set",
        "members": [
          {
            "astId": 627,
            "contract": "solidity/contracts/TendV2Keep3rJob.sol:TendV2Keep3rJob",
            "label": "_values",
            "offset": 0,
            "slot": "0",
            "type": "t_array(t_bytes32)dyn_storage"
          },
          {
            "astId": 631,
            "contract": "solidity/contracts/TendV2Keep3rJob.sol:TendV2Keep3rJob",
            "label": "_indexes",
            "offset": 0,
            "slot": "1",
            "type": "t_mapping(t_bytes32,t_uint256)"
          }
        ],
        "numberOfBytes": "64"
      },
      "t_uint256": {
        "encoding": "inplace",
        "label": "uint256",
        "numberOfBytes": "32"
      }
    }
  }
}